{
  "contractName": "Store",
  "abi": [
    {
      "inputs": [],
      "payable": false,
      "stateMutability": "nonpayable",
      "type": "constructor"
    },
    {
      "anonymous": false,
      "inputs": [
        {
          "indexed": false,
          "internalType": "address",
          "name": "",
          "type": "address"
        },
        {
          "indexed": false,
          "internalType": "uint256",
          "name": "",
          "type": "uint256"
        },
        {
          "indexed": false,
          "internalType": "uint256",
          "name": "",
          "type": "uint256"
        }
      ],
      "name": "OrderPlaced",
      "type": "event"
    },
    {
      "anonymous": false,
      "inputs": [
        {
          "components": [
            {
              "internalType": "uint256",
              "name": "id",
              "type": "uint256"
            },
            {
              "internalType": "uint256",
              "name": "amount",
              "type": "uint256"
            },
            {
              "internalType": "string",
              "name": "shippingDetails",
              "type": "string"
            },
            {
              "internalType": "uint256",
              "name": "orderProductCount",
              "type": "uint256"
            }
          ],
          "indexed": false,
          "internalType": "struct Store.Order[]",
          "name": "",
          "type": "tuple[]"
        }
      ],
      "name": "OrdersReturned",
      "type": "event"
    },
    {
      "anonymous": false,
      "inputs": [
        {
          "indexed": false,
          "internalType": "uint256",
          "name": "",
          "type": "uint256"
        },
        {
          "indexed": false,
          "internalType": "string",
          "name": "",
          "type": "string"
        }
      ],
      "name": "ProductAdded",
      "type": "event"
    },
    {
      "anonymous": false,
      "inputs": [
        {
          "indexed": false,
          "internalType": "uint256",
          "name": "",
          "type": "uint256"
        },
        {
          "indexed": false,
          "internalType": "string",
          "name": "",
          "type": "string"
        }
      ],
      "name": "ProductReturned",
      "type": "event"
    },
    {
      "anonymous": false,
      "inputs": [
        {
          "components": [
            {
              "internalType": "uint256",
              "name": "id",
              "type": "uint256"
            },
            {
              "internalType": "string",
              "name": "name",
              "type": "string"
            },
            {
              "internalType": "uint256",
              "name": "price",
              "type": "uint256"
            },
            {
              "internalType": "uint256",
              "name": "quantity",
              "type": "uint256"
            },
            {
              "internalType": "string",
              "name": "description",
              "type": "string"
            },
            {
              "internalType": "string",
              "name": "imgUrl",
              "type": "string"
            },
            {
              "internalType": "uint256",
              "name": "reviewCount",
              "type": "uint256"
            }
          ],
          "indexed": false,
          "internalType": "struct Store.Product[]",
          "name": "",
          "type": "tuple[]"
        }
      ],
      "name": "ProductsReturned",
      "type": "event"
    },
    {
      "anonymous": false,
      "inputs": [
        {
          "indexed": false,
          "internalType": "uint256",
          "name": "",
          "type": "uint256"
        },
        {
          "indexed": false,
          "internalType": "string",
          "name": "",
          "type": "string"
        },
        {
          "indexed": false,
          "internalType": "uint256",
          "name": "",
          "type": "uint256"
        }
      ],
      "name": "ReviewAdded",
      "type": "event"
    },
    {
      "anonymous": false,
      "inputs": [
        {
          "components": [
            {
              "internalType": "address",
              "name": "user",
              "type": "address"
            },
            {
              "internalType": "uint256",
              "name": "rating",
              "type": "uint256"
            },
            {
              "internalType": "string",
              "name": "review",
              "type": "string"
            }
          ],
          "indexed": false,
          "internalType": "struct Store.Review[]",
          "name": "",
          "type": "tuple[]"
        }
      ],
      "name": "ReviewsReturned",
      "type": "event"
    },
    {
      "anonymous": false,
      "inputs": [
        {
          "indexed": false,
          "internalType": "address",
          "name": "",
          "type": "address"
        },
        {
          "indexed": false,
          "internalType": "string",
          "name": "",
          "type": "string"
        }
      ],
      "name": "UserAdded",
      "type": "event"
    },
    {
      "constant": true,
      "inputs": [],
      "name": "productCount",
      "outputs": [
        {
          "internalType": "uint256",
          "name": "",
          "type": "uint256"
        }
      ],
      "payable": false,
      "stateMutability": "view",
      "type": "function"
    },
    {
      "constant": true,
      "inputs": [
        {
          "internalType": "uint256",
          "name": "",
          "type": "uint256"
        }
      ],
      "name": "productList",
      "outputs": [
        {
          "internalType": "uint256",
          "name": "id",
          "type": "uint256"
        },
        {
          "internalType": "string",
          "name": "name",
          "type": "string"
        },
        {
          "internalType": "uint256",
          "name": "price",
          "type": "uint256"
        },
        {
          "internalType": "uint256",
          "name": "quantity",
          "type": "uint256"
        },
        {
          "internalType": "string",
          "name": "description",
          "type": "string"
        },
        {
          "internalType": "string",
          "name": "imgUrl",
          "type": "string"
        },
        {
          "internalType": "uint256",
          "name": "reviewCount",
          "type": "uint256"
        }
      ],
      "payable": false,
      "stateMutability": "view",
      "type": "function"
    },
    {
      "constant": false,
      "inputs": [
        {
          "internalType": "string",
          "name": "_email",
          "type": "string"
        },
        {
          "internalType": "string",
          "name": "_name",
          "type": "string"
        },
        {
          "internalType": "string",
          "name": "_password",
          "type": "string"
        },
        {
          "internalType": "string",
          "name": "_billingAdd",
          "type": "string"
        }
      ],
      "name": "addUser",
      "outputs": [],
      "payable": false,
      "stateMutability": "nonpayable",
      "type": "function"
    },
    {
      "constant": true,
      "inputs": [],
      "name": "getUser",
      "outputs": [
        {
          "components": [
            {
              "internalType": "address",
              "name": "id",
              "type": "address"
            },
            {
              "internalType": "string",
              "name": "email",
              "type": "string"
            },
            {
              "internalType": "string",
              "name": "name",
              "type": "string"
            },
            {
              "internalType": "string",
              "name": "billingAdd",
              "type": "string"
            },
            {
              "internalType": "string",
              "name": "password",
              "type": "string"
            },
            {
              "internalType": "uint256",
              "name": "orderCount",
              "type": "uint256"
            },
            {
              "internalType": "bool",
              "name": "isUser",
              "type": "bool"
            }
          ],
          "internalType": "struct Store.User",
          "name": "",
          "type": "tuple"
        }
      ],
      "payable": false,
      "stateMutability": "view",
      "type": "function"
    },
    {
      "constant": false,
      "inputs": [
        {
          "internalType": "string",
          "name": "_name",
          "type": "string"
        },
        {
          "internalType": "string",
          "name": "_description",
          "type": "string"
        },
        {
          "internalType": "string",
          "name": "_imgUrl",
          "type": "string"
        },
        {
          "internalType": "uint256",
          "name": "_price",
          "type": "uint256"
        },
        {
          "internalType": "uint256",
          "name": "_quantity",
          "type": "uint256"
        }
      ],
      "name": "addProduct",
      "outputs": [],
      "payable": false,
      "stateMutability": "nonpayable",
      "type": "function"
    },
    {
      "constant": true,
      "inputs": [
        {
          "internalType": "uint256",
          "name": "prodID",
          "type": "uint256"
        }
      ],
      "name": "getProduct",
      "outputs": [
        {
          "components": [
            {
              "internalType": "uint256",
              "name": "id",
              "type": "uint256"
            },
            {
              "internalType": "string",
              "name": "name",
              "type": "string"
            },
            {
              "internalType": "uint256",
              "name": "price",
              "type": "uint256"
            },
            {
              "internalType": "uint256",
              "name": "quantity",
              "type": "uint256"
            },
            {
              "internalType": "string",
              "name": "description",
              "type": "string"
            },
            {
              "internalType": "string",
              "name": "imgUrl",
              "type": "string"
            },
            {
              "internalType": "uint256",
              "name": "reviewCount",
              "type": "uint256"
            }
          ],
          "internalType": "struct Store.Product",
          "name": "",
          "type": "tuple"
        }
      ],
      "payable": false,
      "stateMutability": "view",
      "type": "function"
    },
    {
      "constant": true,
      "inputs": [],
      "name": "getProductList",
      "outputs": [
        {
          "components": [
            {
              "internalType": "uint256",
              "name": "id",
              "type": "uint256"
            },
            {
              "internalType": "string",
              "name": "name",
              "type": "string"
            },
            {
              "internalType": "uint256",
              "name": "price",
              "type": "uint256"
            },
            {
              "internalType": "uint256",
              "name": "quantity",
              "type": "uint256"
            },
            {
              "internalType": "string",
              "name": "description",
              "type": "string"
            },
            {
              "internalType": "string",
              "name": "imgUrl",
              "type": "string"
            },
            {
              "internalType": "uint256",
              "name": "reviewCount",
              "type": "uint256"
            }
          ],
          "internalType": "struct Store.Product[]",
          "name": "",
          "type": "tuple[]"
        }
      ],
      "payable": false,
      "stateMutability": "view",
      "type": "function"
    },
    {
      "constant": false,
      "inputs": [
        {
          "internalType": "uint256",
          "name": "_productId",
          "type": "uint256"
        },
        {
          "internalType": "uint256",
          "name": "_rating",
          "type": "uint256"
        },
        {
          "internalType": "string",
          "name": "_review",
          "type": "string"
        }
      ],
      "name": "addReview",
      "outputs": [],
      "payable": false,
      "stateMutability": "nonpayable",
      "type": "function"
    },
    {
      "constant": true,
      "inputs": [
        {
          "internalType": "uint256",
          "name": "_productId",
          "type": "uint256"
        }
      ],
      "name": "getReviews",
      "outputs": [
        {
          "components": [
            {
              "internalType": "address",
              "name": "user",
              "type": "address"
            },
            {
              "internalType": "uint256",
              "name": "rating",
              "type": "uint256"
            },
            {
              "internalType": "string",
              "name": "review",
              "type": "string"
            }
          ],
          "internalType": "struct Store.Review[]",
          "name": "",
          "type": "tuple[]"
        }
      ],
      "payable": false,
      "stateMutability": "view",
      "type": "function"
    },
    {
      "constant": false,
      "inputs": [
        {
          "components": [
            {
              "internalType": "uint256",
              "name": "id",
              "type": "uint256"
            },
            {
              "internalType": "uint256",
              "name": "quantity",
              "type": "uint256"
            }
          ],
          "internalType": "struct Store.OrderProduct[]",
          "name": "_products",
          "type": "tuple[]"
        },
        {
          "internalType": "string",
          "name": "_shippingDet",
          "type": "string"
        }
      ],
      "name": "addOrder",
      "outputs": [],
      "payable": false,
      "stateMutability": "nonpayable",
      "type": "function"
    },
    {
      "constant": true,
      "inputs": [],
      "name": "getOrders",
      "outputs": [
        {
          "components": [
            {
              "internalType": "uint256",
              "name": "id",
              "type": "uint256"
            },
            {
              "internalType": "uint256",
              "name": "amount",
              "type": "uint256"
            },
            {
              "internalType": "string",
              "name": "shippingDetails",
              "type": "string"
            },
            {
              "internalType": "uint256",
              "name": "orderProductCount",
              "type": "uint256"
            }
          ],
          "internalType": "struct Store.Order[]",
          "name": "",
          "type": "tuple[]"
        }
      ],
      "payable": false,
      "stateMutability": "view",
      "type": "function"
    }
  ],
  "bytecode": "0x608060405260006005553480156200001657600080fd5b506200007b604051806060016040528060258152602001620031916025913960405180610100016040528060c38152602001620030ce60c391396040518060600160405280603a8152602001620031b6603a9139613a9760146200019d60201b60201c565b620000fb6040518060400160405280601a81526020017f6950686f6e652031312050726f203235364742204d656d6f727900000000000081525060405180610100016040528060c38152602001620030ce60c391396040518060800160405280604f81526020016200307f604f9139613a9760146200019d60201b60201c565b620001976040518060400160405280601a81526020017f43616e6e6f6e20454f53203830442044534c522043616d65726100000000000081525060405180610100016040528060c38152602001620030ce60c391396040518060400160405280600a81526020017f646174613a696d61676500000000000000000000000000000000000000000000815250613a9760146200019d60201b60201c565b62000468565b6040518060e001604052806005548152602001868152602001838152602001828152602001858152602001848152602001600081525060036000600554815260200190815260200160002060008201518160000155602082015181600101908051906020019062000210929190620002c6565b506040820151816002015560608201518160030155608082015181600401908051906020019062000243929190620002c6565b5060a082015181600501908051906020019062000262929190620002c6565b5060c082015181600601559050506005600081548092919060010191905055507f259101de1f87b04b9ee0332ce5e3cc508014004bf283424aead6cd8692f5cf9860055486604051620002b7929190620003c7565b60405180910390a15050505050565b828054600181600116156101000203166002900490600052602060002090601f016020900481019282601f106200030957805160ff19168380011785556200033a565b828001600101855582156200033a579182015b82811115620003395782518255916020019190600101906200031c565b5b5090506200034991906200034d565b5090565b6200037291905b808211156200036e57600081600090555060010162000354565b5090565b90565b60006200038282620003fb565b6200038e818562000406565b9350620003a081856020860162000421565b620003ab8162000457565b840191505092915050565b620003c18162000417565b82525050565b6000604082019050620003de6000830185620003b6565b8181036020830152620003f2818462000375565b90509392505050565b600081519050919050565b600082825260208201905092915050565b6000819050919050565b60005b838110156200044157808201518184015260208101905062000424565b8381111562000451576000848401525b50505050565b6000601f19601f8301169050919050565b612c0780620004786000396000f3fe608060405234801561001057600080fd5b50600436106100a95760003560e01c8063528c87d211610071578063528c87d21461013e578063832880e7146101745780639d4a225514610192578063b9db15b4146101c2578063d8ea04db146101f2578063e0f6ef871461020e576100a9565b806301cda3ac146100ae5780632e2dc43e146100ca57806334d2c0ad146100e85780633e9e27aa14610106578063524a046e14610122575b600080fd5b6100c860048036036100c39190810190611f79565b61022c565b005b6100d261046d565b6040516100df91906127a1565b60405180910390f35b6100f0610684565b6040516100fd91906127c3565b60405180910390f35b610120600480360361011b9190810190612124565b61092e565b005b61013c6004803603610137919081019061203c565b610a89565b005b610158600480360361015391908101906120fb565b610baa565b60405161016b97969594939291906128f4565b60405180910390f35b61017c610db4565b6040516101899190612849565b60405180910390f35b6101ac60048036036101a791908101906120fb565b61110d565b6040516101b991906127e5565b60405180910390f35b6101dc60048036036101d791908101906120fb565b6112e6565b6040516101e99190612827565b60405180910390f35b61020c60048036036102079190810190611f0d565b611521565b005b610216611bfc565b604051610223919061286b565b60405180910390f35b6000803373ffffffffffffffffffffffffffffffffffffffff1673ffffffffffffffffffffffffffffffffffffffff16815260200190815260200160002060060160009054906101000a900460ff16156102bb576040517f08c379a00000000000000000000000000000000000000000000000000000000081526004016102b290612807565b60405180910390fd5b6040518060e001604052803373ffffffffffffffffffffffffffffffffffffffff16815260200185815260200184815260200182815260200183815260200160008152602001600115158152506000803373ffffffffffffffffffffffffffffffffffffffff1673ffffffffffffffffffffffffffffffffffffffff16815260200190815260200160002060008201518160000160006101000a81548173ffffffffffffffffffffffffffffffffffffffff021916908373ffffffffffffffffffffffffffffffffffffffff16021790555060208201518160010190805190602001906103a9929190611c02565b5060408201518160020190805190602001906103c6929190611c02565b5060608201518160030190805190602001906103e3929190611c02565b506080820151816004019080519060200190610400929190611c02565b5060a0820151816005015560c08201518160060160006101000a81548160ff0219169083151502179055509050507fa56e21173460286ea98fc3defc7671b9b8e2ff0c6acea8d6ed30b343724e23fa338560405161045f92919061273a565b60405180910390a150505050565b6060806000803373ffffffffffffffffffffffffffffffffffffffff1673ffffffffffffffffffffffffffffffffffffffff168152602001908152602001600020600501546040519080825280602002602001820160405280156104eb57816020015b6104d8611c82565b8152602001906001900390816104d05790505b50905060008090505b6000803373ffffffffffffffffffffffffffffffffffffffff1673ffffffffffffffffffffffffffffffffffffffff1681526020019081526020016000206005015481101561067c57600160003373ffffffffffffffffffffffffffffffffffffffff1673ffffffffffffffffffffffffffffffffffffffff16815260200190815260200160002060008281526020019081526020016000206040518060800160405290816000820154815260200160018201548152602001600282018054600181600116156101000203166002900480601f0160208091040260200160405190810160405280929190818152602001828054600181600116156101000203166002900480156106455780601f1061061a57610100808354040283529160200191610645565b820191906000526020600020905b81548152906001019060200180831161062857829003601f168201915b5050505050815260200160038201548152505082828151811061066457fe5b602002602001018190525080806001019150506104f4565b508091505090565b6060806005546040519080825280602002602001820160405280156106c357816020015b6106b0611caa565b8152602001906001900390816106a85790505b50905060008090505b60055481101561092657600360008281526020019081526020016000206040518060e001604052908160008201548152602001600182018054600181600116156101000203166002900480601f0160208091040260200160405190810160405280929190818152602001828054600181600116156101000203166002900480156107975780601f1061076c57610100808354040283529160200191610797565b820191906000526020600020905b81548152906001019060200180831161077a57829003601f168201915b505050505081526020016002820154815260200160038201548152602001600482018054600181600116156101000203166002900480601f01602080910402602001604051908101604052809291908181526020018280546001816001161561010002031660029004801561084d5780601f106108225761010080835404028352916020019161084d565b820191906000526020600020905b81548152906001019060200180831161083057829003601f168201915b50505050508152602001600582018054600181600116156101000203166002900480601f0160208091040260200160405190810160405280929190818152602001828054600181600116156101000203166002900480156108ef5780601f106108c4576101008083540402835291602001916108ef565b820191906000526020600020905b8154815290600101906020018083116108d257829003601f168201915b5050505050815260200160068201548152505082828151811061090e57fe5b602002602001018190525080806001019150506106cc565b508091505090565b60405180606001604052803373ffffffffffffffffffffffffffffffffffffffff168152602001838152602001828152506004600085815260200190815260200160002060006003600087815260200190815260200160002060060154815260200190815260200160002060008201518160000160006101000a81548173ffffffffffffffffffffffffffffffffffffffff021916908373ffffffffffffffffffffffffffffffffffffffff160217905550602082015181600101556040820151816002019080519060200190610a06929190611c02565b5090505060036000848152602001908152602001600020600601600081548092919060010191905055507f416797b5e1d4d016e87e3ea4c0a23f381f77ce882c6730010c07bd2b1608e2bb60016003600086815260200190815260200160002060060154038284604051610a7c939291906128b6565b60405180910390a1505050565b6040518060e0016040528060055481526020018681526020018381526020018281526020018581526020018481526020016000815250600360006005548152602001908152602001600020600082015181600001556020820151816001019080519060200190610afa929190611c02565b5060408201518160020155606082015181600301556080820151816004019080519060200190610b2b929190611c02565b5060a0820151816005019080519060200190610b48929190611c02565b5060c082015181600601559050506005600081548092919060010191905055507f259101de1f87b04b9ee0332ce5e3cc508014004bf283424aead6cd8692f5cf9860055486604051610b9b929190612886565b60405180910390a15050505050565b6003602052806000526040600020600091509050806000015490806001018054600181600116156101000203166002900480601f016020809104026020016040519081016040528092919081815260200182805460018160011615610100020316600290048015610c5c5780601f10610c3157610100808354040283529160200191610c5c565b820191906000526020600020905b815481529060010190602001808311610c3f57829003601f168201915b505050505090806002015490806003015490806004018054600181600116156101000203166002900480601f016020809104026020016040519081016040528092919081815260200182805460018160011615610100020316600290048015610d065780601f10610cdb57610100808354040283529160200191610d06565b820191906000526020600020905b815481529060010190602001808311610ce957829003601f168201915b505050505090806005018054600181600116156101000203166002900480601f016020809104026020016040519081016040528092919081815260200182805460018160011615610100020316600290048015610da45780601f10610d7957610100808354040283529160200191610da4565b820191906000526020600020905b815481529060010190602001808311610d8757829003601f168201915b5050505050908060060154905087565b610dbc611ce7565b6000803373ffffffffffffffffffffffffffffffffffffffff1673ffffffffffffffffffffffffffffffffffffffff1681526020019081526020016000206040518060e00160405290816000820160009054906101000a900473ffffffffffffffffffffffffffffffffffffffff1673ffffffffffffffffffffffffffffffffffffffff1673ffffffffffffffffffffffffffffffffffffffff168152602001600182018054600181600116156101000203166002900480601f016020809104026020016040519081016040528092919081815260200182805460018160011615610100020316600290048015610ef45780601f10610ec957610100808354040283529160200191610ef4565b820191906000526020600020905b815481529060010190602001808311610ed757829003601f168201915b50505050508152602001600282018054600181600116156101000203166002900480601f016020809104026020016040519081016040528092919081815260200182805460018160011615610100020316600290048015610f965780601f10610f6b57610100808354040283529160200191610f96565b820191906000526020600020905b815481529060010190602001808311610f7957829003601f168201915b50505050508152602001600382018054600181600116156101000203166002900480601f0160208091040260200160405190810160405280929190818152602001828054600181600116156101000203166002900480156110385780601f1061100d57610100808354040283529160200191611038565b820191906000526020600020905b81548152906001019060200180831161101b57829003601f168201915b50505050508152602001600482018054600181600116156101000203166002900480601f0160208091040260200160405190810160405280929190818152602001828054600181600116156101000203166002900480156110da5780601f106110af576101008083540402835291602001916110da565b820191906000526020600020905b8154815290600101906020018083116110bd57829003601f168201915b50505050508152602001600582015481526020016006820160009054906101000a900460ff161515151581525050905090565b606080600360008481526020019081526020016000206006015460405190808252806020026020018201604052801561116057816020015b61114d611d3c565b8152602001906001900390816111455790505b50905060008090505b60036000858152602001908152602001600020600601548110156112dc576004600085815260200190815260200160002060008281526020019081526020016000206040518060600160405290816000820160009054906101000a900473ffffffffffffffffffffffffffffffffffffffff1673ffffffffffffffffffffffffffffffffffffffff1673ffffffffffffffffffffffffffffffffffffffff16815260200160018201548152602001600282018054600181600116156101000203166002900480601f0160208091040260200160405190810160405280929190818152602001828054600181600116156101000203166002900480156112af5780601f10611284576101008083540402835291602001916112af565b820191906000526020600020905b81548152906001019060200180831161129257829003601f168201915b5050505050815250508282815181106112c457fe5b60200260200101819052508080600101915050611169565b5080915050919050565b6112ee611d73565b600360008381526020019081526020016000206040518060e001604052908160008201548152602001600182018054600181600116156101000203166002900480601f0160208091040260200160405190810160405280929190818152602001828054600181600116156101000203166002900480156113af5780601f10611384576101008083540402835291602001916113af565b820191906000526020600020905b81548152906001019060200180831161139257829003601f168201915b505050505081526020016002820154815260200160038201548152602001600482018054600181600116156101000203166002900480601f0160208091040260200160405190810160405280929190818152602001828054600181600116156101000203166002900480156114655780601f1061143a57610100808354040283529160200191611465565b820191906000526020600020905b81548152906001019060200180831161144857829003601f168201915b50505050508152602001600582018054600181600116156101000203166002900480601f0160208091040260200160405190810160405280929190818152602001828054600181600116156101000203166002900480156115075780601f106114dc57610100808354040283529160200191611507565b820191906000526020600020905b8154815290600101906020018083116114ea57829003601f168201915b505050505081526020016006820154815250509050919050565b600080905060008090505b83518110156119f45783818151811061154157fe5b6020026020010151602001516003600086848151811061155d57fe5b6020026020010151600001518152602001908152602001600020600301600082825403925050819055506003600085838151811061159757fe5b602002602001015160000151815260200190815260200160002060020154820191506040518060e001604052808583815181106115d057fe5b6020026020010151600001518152602001600360008785815181106115f157fe5b60200260200101516000015181526020019081526020016000206001018054600181600116156101000203166002900480601f0160208091040260200160405190810160405280929190818152602001828054600181600116156101000203166002900480156116a25780601f10611677576101008083540402835291602001916116a2565b820191906000526020600020905b81548152906001019060200180831161168557829003601f168201915b50505050508152602001600360008785815181106116bc57fe5b60200260200101516000015181526020019081526020016000206002015481526020018583815181106116eb57fe5b60200260200101516020015181526020016003600087858151811061170c57fe5b60200260200101516000015181526020019081526020016000206004018054600181600116156101000203166002900480601f0160208091040260200160405190810160405280929190818152602001828054600181600116156101000203166002900480156117bd5780601f10611792576101008083540402835291602001916117bd565b820191906000526020600020905b8154815290600101906020018083116117a057829003601f168201915b50505050508152602001600360008785815181106117d757fe5b60200260200101516000015181526020019081526020016000206005018054600181600116156101000203166002900480601f0160208091040260200160405190810160405280929190818152602001828054600181600116156101000203166002900480156118885780601f1061185d57610100808354040283529160200191611888565b820191906000526020600020905b81548152906001019060200180831161186b57829003601f168201915b50505050508152602001600360008785815181106118a257fe5b602002602001015160000151815260200190815260200160002060060154815250600260003373ffffffffffffffffffffffffffffffffffffffff1673ffffffffffffffffffffffffffffffffffffffff16815260200190815260200160002060008060003373ffffffffffffffffffffffffffffffffffffffff1673ffffffffffffffffffffffffffffffffffffffff168152602001908152602001600020600501548152602001908152602001600020600083815260200190815260200160002060008201518160000155602082015181600101908051906020019061198b929190611c02565b50604082015181600201556060820151816003015560808201518160040190805190602001906119bc929190611c02565b5060a08201518160050190805190602001906119d9929190611c02565b5060c08201518160060155905050808060010191505061152c565b5060405180608001604052806000803373ffffffffffffffffffffffffffffffffffffffff1673ffffffffffffffffffffffffffffffffffffffff1681526020019081526020016000206005015481526020018281526020018381526020018451815250600160003373ffffffffffffffffffffffffffffffffffffffff1673ffffffffffffffffffffffffffffffffffffffff16815260200190815260200160002060008060003373ffffffffffffffffffffffffffffffffffffffff1673ffffffffffffffffffffffffffffffffffffffff16815260200190815260200160002060050154815260200190815260200160002060008201518160000155602082015181600101556040820151816002019080519060200190611b19929190611c02565b50606082015181600301559050506000803373ffffffffffffffffffffffffffffffffffffffff1673ffffffffffffffffffffffffffffffffffffffff168152602001908152602001600020600501600081548092919060010191905055507f03f23a9b67af957c8605376a4f515b53f102d4ad7f4da099bd1aff8e3ee13fec3360016000803373ffffffffffffffffffffffffffffffffffffffff1673ffffffffffffffffffffffffffffffffffffffff168152602001908152602001600020600501540383604051611bef9392919061276a565b60405180910390a1505050565b60055481565b828054600181600116156101000203166002900490600052602060002090601f016020900481019282601f10611c4357805160ff1916838001178555611c71565b82800160010185558215611c71579182015b82811115611c70578251825591602001919060010190611c55565b5b509050611c7e9190611db0565b5090565b6040518060800160405280600081526020016000815260200160608152602001600081525090565b6040518060e00160405280600081526020016060815260200160008152602001600081526020016060815260200160608152602001600081525090565b6040518060e00160405280600073ffffffffffffffffffffffffffffffffffffffff16815260200160608152602001606081526020016060815260200160608152602001600081526020016000151581525090565b6040518060600160405280600073ffffffffffffffffffffffffffffffffffffffff16815260200160008152602001606081525090565b6040518060e00160405280600081526020016060815260200160008152602001600081526020016060815260200160608152602001600081525090565b611dd291905b80821115611dce576000816000905550600101611db6565b5090565b90565b600082601f830112611de657600080fd5b8135611df9611df4826129a5565b612978565b91508181835260208401935060208101905083856040840282011115611e1e57600080fd5b60005b83811015611e4e5781611e348882611eac565b845260208401935060408301925050600181019050611e21565b5050505092915050565b600082601f830112611e6957600080fd5b8135611e7c611e77826129cd565b612978565b91508082526020830160208301858383011115611e9857600080fd5b611ea3838284612b5a565b50505092915050565b600060408284031215611ebe57600080fd5b611ec86040612978565b90506000611ed884828501611ef8565b6000830152506020611eec84828501611ef8565b60208301525092915050565b600081359050611f0781612bad565b92915050565b60008060408385031215611f2057600080fd5b600083013567ffffffffffffffff811115611f3a57600080fd5b611f4685828601611dd5565b925050602083013567ffffffffffffffff811115611f6357600080fd5b611f6f85828601611e58565b9150509250929050565b60008060008060808587031215611f8f57600080fd5b600085013567ffffffffffffffff811115611fa957600080fd5b611fb587828801611e58565b945050602085013567ffffffffffffffff811115611fd257600080fd5b611fde87828801611e58565b935050604085013567ffffffffffffffff811115611ffb57600080fd5b61200787828801611e58565b925050606085013567ffffffffffffffff81111561202457600080fd5b61203087828801611e58565b91505092959194509250565b600080600080600060a0868803121561205457600080fd5b600086013567ffffffffffffffff81111561206e57600080fd5b61207a88828901611e58565b955050602086013567ffffffffffffffff81111561209757600080fd5b6120a388828901611e58565b945050604086013567ffffffffffffffff8111156120c057600080fd5b6120cc88828901611e58565b93505060606120dd88828901611ef8565b92505060806120ee88828901611ef8565b9150509295509295909350565b60006020828403121561210d57600080fd5b600061211b84828501611ef8565b91505092915050565b60008060006060848603121561213957600080fd5b600061214786828701611ef8565b935050602061215886828701611ef8565b925050604084013567ffffffffffffffff81111561217557600080fd5b61218186828701611e58565b9150509250925092565b60006121978383612464565b905092915050565b60006121ab8383612571565b905092915050565b60006121bf838361261b565b905092915050565b6121d081612b24565b82525050565b6121df81612adc565b82525050565b60006121f082612a29565b6121fa8185612a87565b93508360208202850161220c856129f9565b8060005b858110156122485784840389528151612229858261218b565b945061223483612a60565b925060208a01995050600181019050612210565b50829750879550505050505092915050565b600061226582612a34565b61226f8185612a98565b93508360208202850161228185612a09565b8060005b858110156122bd578484038952815161229e858261219f565b94506122a983612a6d565b925060208a01995050600181019050612285565b50829750879550505050505092915050565b60006122da82612a3f565b6122e48185612aa9565b9350836020820285016122f685612a19565b8060005b85811015612332578484038952815161231385826121b3565b945061231e83612a7a565b925060208a019950506001810190506122fa565b50829750879550505050505092915050565b61234d81612aee565b82525050565b600061235e82612a55565b6123688185612acb565b9350612378818560208601612b69565b61238181612b9c565b840191505092915050565b600061239782612a4a565b6123a18185612aba565b93506123b1818560208601612b69565b6123ba81612b9c565b840191505092915050565b60006123d082612a4a565b6123da8185612acb565b93506123ea818560208601612b69565b6123f381612b9c565b840191505092915050565b600061240b602483612acb565b91507f53746f72653a2061646455736572202d205573657220616c726561647920657860008301527f69737473000000000000000000000000000000000000000000000000000000006020830152604082019050919050565b600060808301600083015161247c600086018261271c565b50602083015161248f602086018261271c565b50604083015184820360408601526124a7828261238c565b91505060608301516124bc606086018261271c565b508091505092915050565b600060e0830160008301516124df600086018261271c565b50602083015184820360208601526124f7828261238c565b915050604083015161250c604086018261271c565b50606083015161251f606086018261271c565b5060808301518482036080860152612537828261238c565b91505060a083015184820360a0860152612551828261238c565b91505060c083015161256660c086018261271c565b508091505092915050565b600060e083016000830151612589600086018261271c565b50602083015184820360208601526125a1828261238c565b91505060408301516125b6604086018261271c565b5060608301516125c9606086018261271c565b50608083015184820360808601526125e1828261238c565b91505060a083015184820360a08601526125fb828261238c565b91505060c083015161261060c086018261271c565b508091505092915050565b600060608301600083015161263360008601826121d6565b506020830151612646602086018261271c565b506040830151848203604086015261265e828261238c565b9150508091505092915050565b600060e08301600083015161268360008601826121d6565b506020830151848203602086015261269b828261238c565b915050604083015184820360408601526126b5828261238c565b915050606083015184820360608601526126cf828261238c565b915050608083015184820360808601526126e9828261238c565b91505060a08301516126fe60a086018261271c565b5060c083015161271160c0860182612344565b508091505092915050565b61272581612b1a565b82525050565b61273481612b1a565b82525050565b600060408201905061274f60008301856121c7565b81810360208301526127618184612353565b90509392505050565b600060608201905061277f60008301866121c7565b61278c602083018561272b565b612799604083018461272b565b949350505050565b600060208201905081810360008301526127bb81846121e5565b905092915050565b600060208201905081810360008301526127dd818461225a565b905092915050565b600060208201905081810360008301526127ff81846122cf565b905092915050565b60006020820190508181036000830152612820816123fe565b9050919050565b6000602082019050818103600083015261284181846124c7565b905092915050565b60006020820190508181036000830152612863818461266b565b905092915050565b6000602082019050612880600083018461272b565b92915050565b600060408201905061289b600083018561272b565b81810360208301526128ad8184612353565b90509392505050565b60006060820190506128cb600083018661272b565b81810360208301526128dd8185612353565b90506128ec604083018461272b565b949350505050565b600060e082019050612909600083018a61272b565b818103602083015261291b81896123c5565b905061292a604083018861272b565b612937606083018761272b565b818103608083015261294981866123c5565b905081810360a083015261295d81856123c5565b905061296c60c083018461272b565b98975050505050505050565b6000604051905081810181811067ffffffffffffffff8211171561299b57600080fd5b8060405250919050565b600067ffffffffffffffff8211156129bc57600080fd5b602082029050602081019050919050565b600067ffffffffffffffff8211156129e457600080fd5b601f19601f8301169050602081019050919050565b6000819050602082019050919050565b6000819050602082019050919050565b6000819050602082019050919050565b600081519050919050565b600081519050919050565b600081519050919050565b600081519050919050565b600081519050919050565b6000602082019050919050565b6000602082019050919050565b6000602082019050919050565b600082825260208201905092915050565b600082825260208201905092915050565b600082825260208201905092915050565b600082825260208201905092915050565b600082825260208201905092915050565b6000612ae782612afa565b9050919050565b60008115159050919050565b600073ffffffffffffffffffffffffffffffffffffffff82169050919050565b6000819050919050565b6000612b2f82612b36565b9050919050565b6000612b4182612b48565b9050919050565b6000612b5382612afa565b9050919050565b82818337600083830152505050565b60005b83811015612b87578082015181840152602081019050612b6c565b83811115612b96576000848401525b50505050565b6000601f19601f8301169050919050565b612bb681612b1a565b8114612bc157600080fd5b5056fea365627a7a723158201958a0dd4d825e6fa44448dd4f7ea33b03072dd0d08e7d1ee7ab3fe92f0009bf6c6578706572696d656e74616cf564736f6c6343000510004068747470733a2f2f696d616765732e70726963656f79652e706b2f6170706c652d6970686f6e652d78692d70616b697374616e2d70726963656f79652d6f696b316f2d353030783530302e77656270426c7565746f6f746820746563686e6f6c6f6779206c65747320796f7520636f6e6e656374206974207769746820636f6d70617469626c65206465766963657320776972656c6573736c7920486967682d7175616c6974792041414320617564696f206f666665727320696d6d657273697665206c697374656e696e6720657870657269656e6365204275696c742d696e206d6963726f70686f6e6520616c6c6f777320796f7520746f2074616b652063616c6c73207768696c6520776f726b696e67416972706f647320576972656c65737320426c7565746f6f7468204865616470686f6e657368747470733a2f2f726562656c746563682e636f6d2f77702d636f6e74656e742f75706c6f6164732f323032312f31302f4d4d4537332e6a7067",
  "source": "// SPDX-License-Identifier: MIT\r\npragma solidity >=0.4.22 <=0.8.17;\r\npragma experimental ABIEncoderV2;\r\n\r\ncontract Store {\r\n    struct User {\r\n        address id;\r\n        string email;\r\n        string name;\r\n        string billingAdd;\r\n        string password;\r\n        uint256 orderCount;\r\n        bool isUser;\r\n    }\r\n\r\n    struct Product {\r\n        uint256 id;\r\n        string name;\r\n        uint256 price;\r\n        uint256 quantity;\r\n        string description;\r\n        string imgUrl;\r\n        uint256 reviewCount;\r\n    }\r\n\r\n    struct Review {\r\n        address user;\r\n        uint256 rating;\r\n        string review;\r\n    }\r\n\r\n    struct Order {\r\n        uint256 id;\r\n        uint256 amount;\r\n        string shippingDetails;\r\n        uint256 orderProductCount;\r\n    }\r\n\r\n    struct OrderProduct {\r\n        uint256 id;\r\n        uint256 quantity;\r\n    }\r\n\r\n    // Mappings for handling user functionalities\r\n    mapping(address => User) userList;\r\n    mapping(address => mapping(uint256 => Order)) orderList;\r\n    mapping(address => mapping(uint256 => mapping(uint256 => Product))) orderProductList;\r\n\r\n    // Mappings for handling product functionalities\r\n    mapping(uint256 => Product) public productList;\r\n    mapping(uint256 => mapping(uint256 => Review)) reviewList;\r\n\r\n    uint256 public productCount = 0;\r\n\r\n    event UserAdded(address, string);\r\n    event ProductAdded(uint256, string);\r\n    event ReviewAdded(uint256, string, uint256);\r\n    event OrderPlaced(address, uint256, uint256);\r\n    event ProductReturned(uint256, string);\r\n    event ProductsReturned(Product[]);\r\n    event OrdersReturned(Order[]);\r\n    event ReviewsReturned(Review[]);\r\n\r\n    constructor() public {\r\n        addProduct(\r\n            \"Airpods Wireless Bluetooth Headphones\",\r\n            \"Bluetooth technology lets you connect it with compatible devices wirelessly High-quality AAC audio offers immersive listening experience Built-in microphone allows you to take calls while working\",\r\n            \"https://rebeltech.com/wp-content/uploads/2021/10/MME73.jpg\",\r\n            14999,\r\n            20\r\n        );\r\n        addProduct(\r\n            \"iPhone 11 Pro 256GB Memory\",\r\n            \"Bluetooth technology lets you connect it with compatible devices wirelessly High-quality AAC audio offers immersive listening experience Built-in microphone allows you to take calls while working\",\r\n            \"https://images.priceoye.pk/apple-iphone-xi-pakistan-priceoye-oik1o-500x500.webp\",\r\n            14999,\r\n            20\r\n        );\r\n        addProduct(\r\n            \"Cannon EOS 80D DSLR Camera\",\r\n            \"Bluetooth technology lets you connect it with compatible devices wirelessly High-quality AAC audio offers immersive listening experience Built-in microphone allows you to take calls while working\",\r\n            \"data:image\",\r\n            14999,\r\n            20\r\n        );\r\n    }\r\n\r\n    function addUser(\r\n        string memory _email,\r\n        string memory _name,\r\n        string memory _password,\r\n        string memory _billingAdd\r\n    ) public {\r\n        require(\r\n            !userList[msg.sender].isUser,\r\n            \"Store: addUser - User already exists\"\r\n        );\r\n\r\n        userList[msg.sender] = User(\r\n            msg.sender,\r\n            _email,\r\n            _name,\r\n            _billingAdd,\r\n            _password,\r\n            0,\r\n            true\r\n        );\r\n\r\n        emit UserAdded(msg.sender, _email);\r\n    }\r\n\r\n    function getUser() public view returns (User memory) {\r\n        return userList[msg.sender];\r\n    }\r\n\r\n    function addProduct(\r\n        string memory _name,\r\n        string memory _description,\r\n        string memory _imgUrl,\r\n        uint256 _price,\r\n        uint256 _quantity\r\n    ) public {\r\n        productList[productCount] = Product(\r\n            productCount,\r\n            _name,\r\n            _price,\r\n            _quantity,\r\n            _description,\r\n            _imgUrl,\r\n            0\r\n        );\r\n\r\n        productCount++;\r\n        emit ProductAdded(productCount, _name);\r\n    }\r\n\r\n    function getProduct(uint256 prodID) public view returns (Product memory) {\r\n        // emit ProductReturned(prodID, productList[prodID].name);\r\n        return productList[prodID];\r\n    }\r\n\r\n    function getProductList() public view returns (Product[] memory) {\r\n        Product[] memory _products = new Product[](productCount);\r\n\r\n        for (uint256 i = 0; i < productCount; i++) {\r\n            _products[i] = productList[i];\r\n        }\r\n\r\n        // emit ProductsReturned(_products);\r\n        return _products;\r\n    }\r\n\r\n    function addReview(\r\n        uint256 _productId,\r\n        uint256 _rating,\r\n        string memory _review\r\n    ) public {\r\n        // require(\r\n        //     !userList[msg.sender].isUser,\r\n        //     \"Store: addReview - User does not exist\"\r\n        // );\r\n\r\n        // require(\r\n        //     _rating < 0 || _rating > 5,\r\n        //     \"Store: addReview - Rating should be between 0 and 5\"\r\n        // );\r\n\r\n        // require(\r\n        //     _productId < 0 || _productId > productCount,\r\n        //     \"Store: addReview - Product does not exist\"\r\n        // );\r\n\r\n        // require(\r\n        //     productList[_productId].id != _productId,\r\n        //     \"Store: addReview - Product does not exist\"\r\n        // );\r\n\r\n        reviewList[_productId][productList[_productId].reviewCount] = Review(\r\n            msg.sender,\r\n            _rating,\r\n            _review\r\n        );\r\n\r\n        productList[_productId].reviewCount++;\r\n\r\n        emit ReviewAdded(\r\n            productList[_productId].reviewCount - 1,\r\n            _review,\r\n            _rating\r\n        );\r\n    }\r\n\r\n    function getReviews(uint256 _productId)\r\n        public\r\n        view\r\n        returns (Review[] memory)\r\n    {\r\n        Review[] memory reviews = new Review[](\r\n            productList[_productId].reviewCount\r\n        );\r\n\r\n        for (uint256 i = 0; i < productList[_productId].reviewCount; i++) {\r\n            reviews[i] = reviewList[_productId][i];\r\n        }\r\n\r\n        // emit ReviewsReturned(reviews);\r\n        return reviews;\r\n    }\r\n\r\n    function addOrder(\r\n        OrderProduct[] memory _products,\r\n        string memory _shippingDet\r\n    ) public {\r\n        // require(\r\n        //     userList[msg.sender].id == address(0),\r\n        //     \"Store: addOrder - User does not exist\"\r\n        // );\r\n\r\n        uint256 total = 0;\r\n        // for (uint256 i = 0; i < _products.length; i++) {\r\n        //     require(\r\n        //         _products[i].id < 0 || _products[i].id > productCount,\r\n        //         \"Store: addOrder - Product does not exist\"\r\n        //     );\r\n\r\n        //     require(\r\n        //         productList[_products[i].id].id != _products[i].id,\r\n        //         \"Store: addOrder - Product does not exist\"\r\n        //     );\r\n\r\n        //     require(\r\n        //         productList[_products[i].quantity].quantity == 0,\r\n        //         \"Store: addOrder - Product out of stock\"\r\n        //     );\r\n        // }\r\n\r\n        for (uint256 i = 0; i < _products.length; i++) {\r\n            productList[_products[i].id].quantity -= _products[i].quantity;\r\n            total += productList[_products[i].id].price;\r\n\r\n            orderProductList[msg.sender][userList[msg.sender].orderCount][\r\n                i\r\n            ] = Product(\r\n                _products[i].id,\r\n                productList[_products[i].id].name,\r\n                productList[_products[i].id].price,\r\n                _products[i].quantity,\r\n                productList[_products[i].id].description,\r\n                productList[_products[i].id].imgUrl,\r\n                productList[_products[i].id].reviewCount\r\n            );\r\n        }\r\n\r\n        orderList[msg.sender][userList[msg.sender].orderCount] = Order(\r\n            userList[msg.sender].orderCount,\r\n            total,\r\n            _shippingDet,\r\n            _products.length\r\n        );\r\n\r\n        userList[msg.sender].orderCount++;\r\n\r\n        emit OrderPlaced(\r\n            msg.sender,\r\n            userList[msg.sender].orderCount - 1,\r\n            total\r\n        );\r\n    }\r\n\r\n    function getOrders() public view returns (Order[] memory) {\r\n        Order[] memory _orders = new Order[](userList[msg.sender].orderCount);\r\n\r\n        for (uint256 i = 0; i < userList[msg.sender].orderCount; i++) {\r\n            _orders[i] = orderList[msg.sender][i];\r\n        }\r\n\r\n        // emit OrdersReturned(_orders);\r\n        return _orders;\r\n    }\r\n}\r\n",
  "sourcePath": "E:\\Semester 7\\Blockchain and Cryptography\\Project\\Blockchain-MERN-Ecommerce\\solidity\\contracts\\Store.sol",
  "compiler": {
    "name": "solc",
    "version": "0.5.16+commit.9c3226ce.Emscripten.clang"
  },
  "schemaVersion": "3.4.10",
  "updatedAt": "2022-12-03T16:20:24.607Z",
  "networkType": "ethereum",
  "devdoc": {
    "methods": {}
  },
  "userdoc": {
    "methods": {}
  }
}