{
  "contractName": "Store",
  "abi": [
    {
      "inputs": [],
      "payable": false,
      "stateMutability": "nonpayable",
      "type": "constructor"
    },
    {
      "anonymous": false,
      "inputs": [
        {
          "indexed": false,
          "internalType": "address",
          "name": "",
          "type": "address"
        },
        {
          "indexed": false,
          "internalType": "uint256",
          "name": "",
          "type": "uint256"
        },
        {
          "indexed": false,
          "internalType": "uint256",
          "name": "",
          "type": "uint256"
        }
      ],
      "name": "OrderPlaced",
      "type": "event"
    },
    {
      "anonymous": false,
      "inputs": [
        {
          "components": [
            {
              "internalType": "uint256",
              "name": "id",
              "type": "uint256"
            },
            {
              "internalType": "uint256",
              "name": "amount",
              "type": "uint256"
            },
            {
              "internalType": "string",
              "name": "shippingDetails",
              "type": "string"
            },
            {
              "internalType": "uint256",
              "name": "orderProductCount",
              "type": "uint256"
            }
          ],
          "indexed": false,
          "internalType": "struct Store.Order[]",
          "name": "",
          "type": "tuple[]"
        }
      ],
      "name": "OrdersReturned",
      "type": "event"
    },
    {
      "anonymous": false,
      "inputs": [
        {
          "indexed": false,
          "internalType": "uint256",
          "name": "",
          "type": "uint256"
        },
        {
          "indexed": false,
          "internalType": "string",
          "name": "",
          "type": "string"
        }
      ],
      "name": "ProductAdded",
      "type": "event"
    },
    {
      "anonymous": false,
      "inputs": [
        {
          "indexed": false,
          "internalType": "uint256",
          "name": "",
          "type": "uint256"
        },
        {
          "indexed": false,
          "internalType": "string",
          "name": "",
          "type": "string"
        }
      ],
      "name": "ProductReturned",
      "type": "event"
    },
    {
      "anonymous": false,
      "inputs": [
        {
          "components": [
            {
              "internalType": "uint256",
              "name": "id",
              "type": "uint256"
            },
            {
              "internalType": "string",
              "name": "name",
              "type": "string"
            },
            {
              "internalType": "uint256",
              "name": "price",
              "type": "uint256"
            },
            {
              "internalType": "uint256",
              "name": "quantity",
              "type": "uint256"
            },
            {
              "internalType": "string",
              "name": "description",
              "type": "string"
            },
            {
              "internalType": "string",
              "name": "imgUrl",
              "type": "string"
            },
            {
              "internalType": "uint256",
              "name": "reviewCount",
              "type": "uint256"
            }
          ],
          "indexed": false,
          "internalType": "struct Store.Product[]",
          "name": "",
          "type": "tuple[]"
        }
      ],
      "name": "ProductsReturned",
      "type": "event"
    },
    {
      "anonymous": false,
      "inputs": [
        {
          "indexed": false,
          "internalType": "uint256",
          "name": "",
          "type": "uint256"
        },
        {
          "indexed": false,
          "internalType": "string",
          "name": "",
          "type": "string"
        },
        {
          "indexed": false,
          "internalType": "uint256",
          "name": "",
          "type": "uint256"
        }
      ],
      "name": "ReviewAdded",
      "type": "event"
    },
    {
      "anonymous": false,
      "inputs": [
        {
          "components": [
            {
              "internalType": "address",
              "name": "user",
              "type": "address"
            },
            {
              "internalType": "uint256",
              "name": "rating",
              "type": "uint256"
            },
            {
              "internalType": "string",
              "name": "review",
              "type": "string"
            }
          ],
          "indexed": false,
          "internalType": "struct Store.Review[]",
          "name": "",
          "type": "tuple[]"
        }
      ],
      "name": "ReviewsReturned",
      "type": "event"
    },
    {
      "anonymous": false,
      "inputs": [
        {
          "indexed": false,
          "internalType": "address",
          "name": "",
          "type": "address"
        },
        {
          "indexed": false,
          "internalType": "string",
          "name": "",
          "type": "string"
        }
      ],
      "name": "UserAdded",
      "type": "event"
    },
    {
      "constant": false,
      "inputs": [
        {
          "internalType": "string",
          "name": "_username",
          "type": "string"
        },
        {
          "internalType": "string",
          "name": "_name",
          "type": "string"
        },
        {
          "internalType": "string",
          "name": "_billingAdd",
          "type": "string"
        },
        {
          "internalType": "string",
          "name": "_password",
          "type": "string"
        }
      ],
      "name": "addUser",
      "outputs": [],
      "payable": false,
      "stateMutability": "nonpayable",
      "type": "function"
    },
    {
      "constant": true,
      "inputs": [],
      "name": "getUser",
      "outputs": [
        {
          "components": [
            {
              "internalType": "address",
              "name": "id",
              "type": "address"
            },
            {
              "internalType": "string",
              "name": "username",
              "type": "string"
            },
            {
              "internalType": "string",
              "name": "name",
              "type": "string"
            },
            {
              "internalType": "string",
              "name": "billingAdd",
              "type": "string"
            },
            {
              "internalType": "string",
              "name": "password",
              "type": "string"
            },
            {
              "internalType": "uint256",
              "name": "orderCount",
              "type": "uint256"
            }
          ],
          "internalType": "struct Store.User",
          "name": "",
          "type": "tuple"
        }
      ],
      "payable": false,
      "stateMutability": "view",
      "type": "function"
    },
    {
      "constant": false,
      "inputs": [
        {
          "internalType": "string",
          "name": "_name",
          "type": "string"
        },
        {
          "internalType": "string",
          "name": "_description",
          "type": "string"
        },
        {
          "internalType": "string",
          "name": "_imgUrl",
          "type": "string"
        },
        {
          "internalType": "uint256",
          "name": "_price",
          "type": "uint256"
        },
        {
          "internalType": "uint256",
          "name": "_quantity",
          "type": "uint256"
        }
      ],
      "name": "addProduct",
      "outputs": [],
      "payable": false,
      "stateMutability": "nonpayable",
      "type": "function"
    },
    {
      "constant": false,
      "inputs": [
        {
          "internalType": "uint256",
          "name": "prodID",
          "type": "uint256"
        }
      ],
      "name": "getProduct",
      "outputs": [
        {
          "components": [
            {
              "internalType": "uint256",
              "name": "id",
              "type": "uint256"
            },
            {
              "internalType": "string",
              "name": "name",
              "type": "string"
            },
            {
              "internalType": "uint256",
              "name": "price",
              "type": "uint256"
            },
            {
              "internalType": "uint256",
              "name": "quantity",
              "type": "uint256"
            },
            {
              "internalType": "string",
              "name": "description",
              "type": "string"
            },
            {
              "internalType": "string",
              "name": "imgUrl",
              "type": "string"
            },
            {
              "internalType": "uint256",
              "name": "reviewCount",
              "type": "uint256"
            }
          ],
          "internalType": "struct Store.Product",
          "name": "",
          "type": "tuple"
        }
      ],
      "payable": false,
      "stateMutability": "nonpayable",
      "type": "function"
    },
    {
      "constant": true,
      "inputs": [],
      "name": "getProductList",
      "outputs": [
        {
          "components": [
            {
              "internalType": "uint256",
              "name": "id",
              "type": "uint256"
            },
            {
              "internalType": "string",
              "name": "name",
              "type": "string"
            },
            {
              "internalType": "uint256",
              "name": "price",
              "type": "uint256"
            },
            {
              "internalType": "uint256",
              "name": "quantity",
              "type": "uint256"
            },
            {
              "internalType": "string",
              "name": "description",
              "type": "string"
            },
            {
              "internalType": "string",
              "name": "imgUrl",
              "type": "string"
            },
            {
              "internalType": "uint256",
              "name": "reviewCount",
              "type": "uint256"
            }
          ],
          "internalType": "struct Store.Product[]",
          "name": "",
          "type": "tuple[]"
        }
      ],
      "payable": false,
      "stateMutability": "view",
      "type": "function"
    },
    {
      "constant": false,
      "inputs": [
        {
          "internalType": "uint256",
          "name": "_productId",
          "type": "uint256"
        },
        {
          "internalType": "uint256",
          "name": "_rating",
          "type": "uint256"
        },
        {
          "internalType": "string",
          "name": "_review",
          "type": "string"
        }
      ],
      "name": "addReview",
      "outputs": [],
      "payable": false,
      "stateMutability": "nonpayable",
      "type": "function"
    },
    {
      "constant": true,
      "inputs": [
        {
          "internalType": "uint256",
          "name": "_productId",
          "type": "uint256"
        }
      ],
      "name": "getReviews",
      "outputs": [
        {
          "components": [
            {
              "internalType": "address",
              "name": "user",
              "type": "address"
            },
            {
              "internalType": "uint256",
              "name": "rating",
              "type": "uint256"
            },
            {
              "internalType": "string",
              "name": "review",
              "type": "string"
            }
          ],
          "internalType": "struct Store.Review[]",
          "name": "",
          "type": "tuple[]"
        }
      ],
      "payable": false,
      "stateMutability": "view",
      "type": "function"
    },
    {
      "constant": false,
      "inputs": [
        {
          "components": [
            {
              "internalType": "uint256",
              "name": "id",
              "type": "uint256"
            },
            {
              "internalType": "uint256",
              "name": "quantity",
              "type": "uint256"
            }
          ],
          "internalType": "struct Store.OrderProduct[]",
          "name": "_products",
          "type": "tuple[]"
        },
        {
          "internalType": "string",
          "name": "_shippingDet",
          "type": "string"
        }
      ],
      "name": "addOrder",
      "outputs": [],
      "payable": false,
      "stateMutability": "nonpayable",
      "type": "function"
    },
    {
      "constant": true,
      "inputs": [],
      "name": "getOrders",
      "outputs": [
        {
          "components": [
            {
              "internalType": "uint256",
              "name": "id",
              "type": "uint256"
            },
            {
              "internalType": "uint256",
              "name": "amount",
              "type": "uint256"
            },
            {
              "internalType": "string",
              "name": "shippingDetails",
              "type": "string"
            },
            {
              "internalType": "uint256",
              "name": "orderProductCount",
              "type": "uint256"
            }
          ],
          "internalType": "struct Store.Order[]",
          "name": "",
          "type": "tuple[]"
        }
      ],
      "payable": false,
      "stateMutability": "view",
      "type": "function"
    }
  ],
  "bytecode": "0x608060405260006005553480156200001657600080fd5b506200007b60405180606001604052806025815260200162002dd16025913960405180610100016040528060c3815260200162002d0e60c391396040518060600160405280603a815260200162002df6603a9139613a9760146200019d60201b60201c565b620000fb6040518060400160405280601a81526020017f6950686f6e652031312050726f203235364742204d656d6f727900000000000081525060405180610100016040528060c3815260200162002d0e60c391396040518060800160405280604f815260200162002cbf604f9139613a9760146200019d60201b60201c565b620001976040518060400160405280601a81526020017f43616e6e6f6e20454f53203830442044534c522043616d65726100000000000081525060405180610100016040528060c3815260200162002d0e60c391396040518060400160405280600a81526020017f646174613a696d61676500000000000000000000000000000000000000000000815250613a9760146200019d60201b60201c565b62000468565b6040518060e001604052806005548152602001868152602001838152602001828152602001858152602001848152602001600081525060036000600554815260200190815260200160002060008201518160000155602082015181600101908051906020019062000210929190620002c6565b506040820151816002015560608201518160030155608082015181600401908051906020019062000243929190620002c6565b5060a082015181600501908051906020019062000262929190620002c6565b5060c082015181600601559050506005600081548092919060010191905055507f259101de1f87b04b9ee0332ce5e3cc508014004bf283424aead6cd8692f5cf9860055486604051620002b7929190620003c7565b60405180910390a15050505050565b828054600181600116156101000203166002900490600052602060002090601f016020900481019282601f106200030957805160ff19168380011785556200033a565b828001600101855582156200033a579182015b82811115620003395782518255916020019190600101906200031c565b5b5090506200034991906200034d565b5090565b6200037291905b808211156200036e57600081600090555060010162000354565b5090565b90565b60006200038282620003fb565b6200038e818562000406565b9350620003a081856020860162000421565b620003ab8162000457565b840191505092915050565b620003c18162000417565b82525050565b6000604082019050620003de6000830185620003b6565b8181036020830152620003f2818462000375565b90509392505050565b600081519050919050565b600082825260208201905092915050565b6000819050919050565b60005b838110156200044157808201518184015260208101905062000424565b8381111562000451576000848401525b50505050565b6000601f19601f8301169050919050565b61284780620004786000396000f3fe608060405234801561001057600080fd5b50600436106100935760003560e01c8063524a046e11610066578063524a046e1461010c578063832880e7146101285780639d4a225514610146578063b9db15b414610176578063d8ea04db146101a657610093565b806301cda3ac146100985780632e2dc43e146100b457806334d2c0ad146100d25780633e9e27aa146100f0575b600080fd5b6100b260048036036100ad9190810190611c71565b6101c2565b005b6100bc61034b565b6040516100c99190612467565b60405180910390f35b6100da610562565b6040516100e79190612489565b60405180910390f35b61010a60048036036101059190810190611e1c565b61080c565b005b61012660048036036101219190810190611d34565b610967565b005b610130610a88565b60405161013d91906124ef565b60405180910390f35b610160600480360361015b9190810190611df3565b610dc6565b60405161016d91906124ab565b60405180910390f35b610190600480360361018b9190810190611df3565b610f9f565b60405161019d91906124cd565b60405180910390f35b6101c060048036036101bb9190810190611c05565b611228565b005b6040518060c001604052803373ffffffffffffffffffffffffffffffffffffffff16815260200185815260200184815260200183815260200182815260200160008152506000803373ffffffffffffffffffffffffffffffffffffffff1673ffffffffffffffffffffffffffffffffffffffff16815260200190815260200160002060008201518160000160006101000a81548173ffffffffffffffffffffffffffffffffffffffff021916908373ffffffffffffffffffffffffffffffffffffffff16021790555060208201518160010190805190602001906102a7929190611903565b5060408201518160020190805190602001906102c4929190611903565b5060608201518160030190805190602001906102e1929190611903565b5060808201518160040190805190602001906102fe929190611903565b5060a082015181600501559050507fa56e21173460286ea98fc3defc7671b9b8e2ff0c6acea8d6ed30b343724e23fa338560405161033d929190612400565b60405180910390a150505050565b6060806000803373ffffffffffffffffffffffffffffffffffffffff1673ffffffffffffffffffffffffffffffffffffffff168152602001908152602001600020600501546040519080825280602002602001820160405280156103c957816020015b6103b6611983565b8152602001906001900390816103ae5790505b50905060008090505b6000803373ffffffffffffffffffffffffffffffffffffffff1673ffffffffffffffffffffffffffffffffffffffff1681526020019081526020016000206005015481101561055a57600160003373ffffffffffffffffffffffffffffffffffffffff1673ffffffffffffffffffffffffffffffffffffffff16815260200190815260200160002060008281526020019081526020016000206040518060800160405290816000820154815260200160018201548152602001600282018054600181600116156101000203166002900480601f0160208091040260200160405190810160405280929190818152602001828054600181600116156101000203166002900480156105235780601f106104f857610100808354040283529160200191610523565b820191906000526020600020905b81548152906001019060200180831161050657829003601f168201915b5050505050815260200160038201548152505082828151811061054257fe5b602002602001018190525080806001019150506103d2565b508091505090565b6060806005546040519080825280602002602001820160405280156105a157816020015b61058e6119ab565b8152602001906001900390816105865790505b50905060008090505b60055481101561080457600360008281526020019081526020016000206040518060e001604052908160008201548152602001600182018054600181600116156101000203166002900480601f0160208091040260200160405190810160405280929190818152602001828054600181600116156101000203166002900480156106755780601f1061064a57610100808354040283529160200191610675565b820191906000526020600020905b81548152906001019060200180831161065857829003601f168201915b505050505081526020016002820154815260200160038201548152602001600482018054600181600116156101000203166002900480601f01602080910402602001604051908101604052809291908181526020018280546001816001161561010002031660029004801561072b5780601f106107005761010080835404028352916020019161072b565b820191906000526020600020905b81548152906001019060200180831161070e57829003601f168201915b50505050508152602001600582018054600181600116156101000203166002900480601f0160208091040260200160405190810160405280929190818152602001828054600181600116156101000203166002900480156107cd5780601f106107a2576101008083540402835291602001916107cd565b820191906000526020600020905b8154815290600101906020018083116107b057829003601f168201915b505050505081526020016006820154815250508282815181106107ec57fe5b602002602001018190525080806001019150506105aa565b508091505090565b60405180606001604052803373ffffffffffffffffffffffffffffffffffffffff168152602001838152602001828152506004600085815260200190815260200160002060006003600087815260200190815260200160002060060154815260200190815260200160002060008201518160000160006101000a81548173ffffffffffffffffffffffffffffffffffffffff021916908373ffffffffffffffffffffffffffffffffffffffff1602179055506020820151816001015560408201518160020190805190602001906108e4929190611903565b5090505060036000848152602001908152602001600020600601600081548092919060010191905055507f416797b5e1d4d016e87e3ea4c0a23f381f77ce882c6730010c07bd2b1608e2bb6001600360008681526020019081526020016000206006015403828460405161095a93929190612541565b60405180910390a1505050565b6040518060e00160405280600554815260200186815260200183815260200182815260200185815260200184815260200160008152506003600060055481526020019081526020016000206000820151816000015560208201518160010190805190602001906109d8929190611903565b5060408201518160020155606082015181600301556080820151816004019080519060200190610a09929190611903565b5060a0820151816005019080519060200190610a26929190611903565b5060c082015181600601559050506005600081548092919060010191905055507f259101de1f87b04b9ee0332ce5e3cc508014004bf283424aead6cd8692f5cf9860055486604051610a79929190612511565b60405180910390a15050505050565b610a906119e8565b6000803373ffffffffffffffffffffffffffffffffffffffff1673ffffffffffffffffffffffffffffffffffffffff1681526020019081526020016000206040518060c00160405290816000820160009054906101000a900473ffffffffffffffffffffffffffffffffffffffff1673ffffffffffffffffffffffffffffffffffffffff1673ffffffffffffffffffffffffffffffffffffffff168152602001600182018054600181600116156101000203166002900480601f016020809104026020016040519081016040528092919081815260200182805460018160011615610100020316600290048015610bc85780601f10610b9d57610100808354040283529160200191610bc8565b820191906000526020600020905b815481529060010190602001808311610bab57829003601f168201915b50505050508152602001600282018054600181600116156101000203166002900480601f016020809104026020016040519081016040528092919081815260200182805460018160011615610100020316600290048015610c6a5780601f10610c3f57610100808354040283529160200191610c6a565b820191906000526020600020905b815481529060010190602001808311610c4d57829003601f168201915b50505050508152602001600382018054600181600116156101000203166002900480601f016020809104026020016040519081016040528092919081815260200182805460018160011615610100020316600290048015610d0c5780601f10610ce157610100808354040283529160200191610d0c565b820191906000526020600020905b815481529060010190602001808311610cef57829003601f168201915b50505050508152602001600482018054600181600116156101000203166002900480601f016020809104026020016040519081016040528092919081815260200182805460018160011615610100020316600290048015610dae5780601f10610d8357610100808354040283529160200191610dae565b820191906000526020600020905b815481529060010190602001808311610d9157829003601f168201915b50505050508152602001600582015481525050905090565b6060806003600084815260200190815260200160002060060154604051908082528060200260200182016040528015610e1957816020015b610e06611a34565b815260200190600190039081610dfe5790505b50905060008090505b6003600085815260200190815260200160002060060154811015610f95576004600085815260200190815260200160002060008281526020019081526020016000206040518060600160405290816000820160009054906101000a900473ffffffffffffffffffffffffffffffffffffffff1673ffffffffffffffffffffffffffffffffffffffff1673ffffffffffffffffffffffffffffffffffffffff16815260200160018201548152602001600282018054600181600116156101000203166002900480601f016020809104026020016040519081016040528092919081815260200182805460018160011615610100020316600290048015610f685780601f10610f3d57610100808354040283529160200191610f68565b820191906000526020600020905b815481529060010190602001808311610f4b57829003601f168201915b505050505081525050828281518110610f7d57fe5b60200260200101819052508080600101915050610e22565b5080915050919050565b610fa7611a6b565b7f9da3d389c52913faa13a2f684fac92f9d98a2a6d6014c12f3876dd7bcccf138b8260036000858152602001908152602001600020600101604051610fed92919061257f565b60405180910390a1600360008381526020019081526020016000206040518060e001604052908160008201548152602001600182018054600181600116156101000203166002900480601f0160208091040260200160405190810160405280929190818152602001828054600181600116156101000203166002900480156110b65780601f1061108b576101008083540402835291602001916110b6565b820191906000526020600020905b81548152906001019060200180831161109957829003601f168201915b505050505081526020016002820154815260200160038201548152602001600482018054600181600116156101000203166002900480601f01602080910402602001604051908101604052809291908181526020018280546001816001161561010002031660029004801561116c5780601f106111415761010080835404028352916020019161116c565b820191906000526020600020905b81548152906001019060200180831161114f57829003601f168201915b50505050508152602001600582018054600181600116156101000203166002900480601f01602080910402602001604051908101604052809291908181526020018280546001816001161561010002031660029004801561120e5780601f106111e35761010080835404028352916020019161120e565b820191906000526020600020905b8154815290600101906020018083116111f157829003601f168201915b505050505081526020016006820154815250509050919050565b600080905060008090505b83518110156116fb5783818151811061124857fe5b6020026020010151602001516003600086848151811061126457fe5b6020026020010151600001518152602001908152602001600020600301600082825403925050819055506003600085838151811061129e57fe5b602002602001015160000151815260200190815260200160002060020154820191506040518060e001604052808583815181106112d757fe5b6020026020010151600001518152602001600360008785815181106112f857fe5b60200260200101516000015181526020019081526020016000206001018054600181600116156101000203166002900480601f0160208091040260200160405190810160405280929190818152602001828054600181600116156101000203166002900480156113a95780601f1061137e576101008083540402835291602001916113a9565b820191906000526020600020905b81548152906001019060200180831161138c57829003601f168201915b50505050508152602001600360008785815181106113c357fe5b60200260200101516000015181526020019081526020016000206002015481526020018583815181106113f257fe5b60200260200101516020015181526020016003600087858151811061141357fe5b60200260200101516000015181526020019081526020016000206004018054600181600116156101000203166002900480601f0160208091040260200160405190810160405280929190818152602001828054600181600116156101000203166002900480156114c45780601f10611499576101008083540402835291602001916114c4565b820191906000526020600020905b8154815290600101906020018083116114a757829003601f168201915b50505050508152602001600360008785815181106114de57fe5b60200260200101516000015181526020019081526020016000206005018054600181600116156101000203166002900480601f01602080910402602001604051908101604052809291908181526020018280546001816001161561010002031660029004801561158f5780601f106115645761010080835404028352916020019161158f565b820191906000526020600020905b81548152906001019060200180831161157257829003601f168201915b50505050508152602001600360008785815181106115a957fe5b602002602001015160000151815260200190815260200160002060060154815250600260003373ffffffffffffffffffffffffffffffffffffffff1673ffffffffffffffffffffffffffffffffffffffff16815260200190815260200160002060008060003373ffffffffffffffffffffffffffffffffffffffff1673ffffffffffffffffffffffffffffffffffffffff1681526020019081526020016000206005015481526020019081526020016000206000838152602001908152602001600020600082015181600001556020820151816001019080519060200190611692929190611903565b50604082015181600201556060820151816003015560808201518160040190805190602001906116c3929190611903565b5060a08201518160050190805190602001906116e0929190611903565b5060c082015181600601559050508080600101915050611233565b5060405180608001604052806000803373ffffffffffffffffffffffffffffffffffffffff1673ffffffffffffffffffffffffffffffffffffffff1681526020019081526020016000206005015481526020018281526020018381526020018451815250600160003373ffffffffffffffffffffffffffffffffffffffff1673ffffffffffffffffffffffffffffffffffffffff16815260200190815260200160002060008060003373ffffffffffffffffffffffffffffffffffffffff1673ffffffffffffffffffffffffffffffffffffffff16815260200190815260200160002060050154815260200190815260200160002060008201518160000155602082015181600101556040820151816002019080519060200190611820929190611903565b50606082015181600301559050506000803373ffffffffffffffffffffffffffffffffffffffff1673ffffffffffffffffffffffffffffffffffffffff168152602001908152602001600020600501600081548092919060010191905055507f03f23a9b67af957c8605376a4f515b53f102d4ad7f4da099bd1aff8e3ee13fec3360016000803373ffffffffffffffffffffffffffffffffffffffff1673ffffffffffffffffffffffffffffffffffffffff1681526020019081526020016000206005015403836040516118f693929190612430565b60405180910390a1505050565b828054600181600116156101000203166002900490600052602060002090601f016020900481019282601f1061194457805160ff1916838001178555611972565b82800160010185558215611972579182015b82811115611971578251825591602001919060010190611956565b5b50905061197f9190611aa8565b5090565b6040518060800160405280600081526020016000815260200160608152602001600081525090565b6040518060e00160405280600081526020016060815260200160008152602001600081526020016060815260200160608152602001600081525090565b6040518060c00160405280600073ffffffffffffffffffffffffffffffffffffffff16815260200160608152602001606081526020016060815260200160608152602001600081525090565b6040518060600160405280600073ffffffffffffffffffffffffffffffffffffffff16815260200160008152602001606081525090565b6040518060e00160405280600081526020016060815260200160008152602001600081526020016060815260200160608152602001600081525090565b611aca91905b80821115611ac6576000816000905550600101611aae565b5090565b90565b600082601f830112611ade57600080fd5b8135611af1611aec826125dc565b6125af565b91508181835260208401935060208101905083856040840282011115611b1657600080fd5b60005b83811015611b465781611b2c8882611ba4565b845260208401935060408301925050600181019050611b19565b5050505092915050565b600082601f830112611b6157600080fd5b8135611b74611b6f82612604565b6125af565b91508082526020830160208301858383011115611b9057600080fd5b611b9b83828461279a565b50505092915050565b600060408284031215611bb657600080fd5b611bc060406125af565b90506000611bd084828501611bf0565b6000830152506020611be484828501611bf0565b60208301525092915050565b600081359050611bff816127ed565b92915050565b60008060408385031215611c1857600080fd5b600083013567ffffffffffffffff811115611c3257600080fd5b611c3e85828601611acd565b925050602083013567ffffffffffffffff811115611c5b57600080fd5b611c6785828601611b50565b9150509250929050565b60008060008060808587031215611c8757600080fd5b600085013567ffffffffffffffff811115611ca157600080fd5b611cad87828801611b50565b945050602085013567ffffffffffffffff811115611cca57600080fd5b611cd687828801611b50565b935050604085013567ffffffffffffffff811115611cf357600080fd5b611cff87828801611b50565b925050606085013567ffffffffffffffff811115611d1c57600080fd5b611d2887828801611b50565b91505092959194509250565b600080600080600060a08688031215611d4c57600080fd5b600086013567ffffffffffffffff811115611d6657600080fd5b611d7288828901611b50565b955050602086013567ffffffffffffffff811115611d8f57600080fd5b611d9b88828901611b50565b945050604086013567ffffffffffffffff811115611db857600080fd5b611dc488828901611b50565b9350506060611dd588828901611bf0565b9250506080611de688828901611bf0565b9150509295509295909350565b600060208284031215611e0557600080fd5b6000611e1384828501611bf0565b91505092915050565b600080600060608486031215611e3157600080fd5b6000611e3f86828701611bf0565b9350506020611e5086828701611bf0565b925050604084013567ffffffffffffffff811115611e6d57600080fd5b611e7986828701611b50565b9150509250925092565b6000611e8f838361213d565b905092915050565b6000611ea3838361224a565b905092915050565b6000611eb783836122f4565b905092915050565b611ec881612764565b82525050565b611ed781612728565b82525050565b6000611ee882612675565b611ef281856126d3565b935083602082028501611f0485612630565b8060005b85811015611f405784840389528151611f218582611e83565b9450611f2c836126ac565b925060208a01995050600181019050611f08565b50829750879550505050505092915050565b6000611f5d82612680565b611f6781856126e4565b935083602082028501611f7985612640565b8060005b85811015611fb55784840389528151611f968582611e97565b9450611fa1836126b9565b925060208a01995050600181019050611f7d565b50829750879550505050505092915050565b6000611fd28261268b565b611fdc81856126f5565b935083602082028501611fee85612650565b8060005b8581101561202a578484038952815161200b8582611eab565b9450612016836126c6565b925060208a01995050600181019050611ff2565b50829750879550505050505092915050565b6000612047826126a1565b6120518185612717565b93506120618185602086016127a9565b61206a816127dc565b840191505092915050565b600061208082612696565b61208a8185612706565b935061209a8185602086016127a9565b6120a3816127dc565b840191505092915050565b6000815460018116600081146120cb57600181146120f157612135565b607f60028304166120dc8187612717565b955060ff198316865260208601935050612135565b600282046120ff8187612717565b955061210a85612660565b60005b8281101561212c5781548189015260018201915060208101905061210d565b80880195505050505b505092915050565b600060808301600083015161215560008601826123e2565b50602083015161216860208601826123e2565b50604083015184820360408601526121808282612075565b915050606083015161219560608601826123e2565b508091505092915050565b600060e0830160008301516121b860008601826123e2565b50602083015184820360208601526121d08282612075565b91505060408301516121e560408601826123e2565b5060608301516121f860608601826123e2565b50608083015184820360808601526122108282612075565b91505060a083015184820360a086015261222a8282612075565b91505060c083015161223f60c08601826123e2565b508091505092915050565b600060e08301600083015161226260008601826123e2565b506020830151848203602086015261227a8282612075565b915050604083015161228f60408601826123e2565b5060608301516122a260608601826123e2565b50608083015184820360808601526122ba8282612075565b91505060a083015184820360a08601526122d48282612075565b91505060c08301516122e960c08601826123e2565b508091505092915050565b600060608301600083015161230c6000860182611ece565b50602083015161231f60208601826123e2565b50604083015184820360408601526123378282612075565b9150508091505092915050565b600060c08301600083015161235c6000860182611ece565b50602083015184820360208601526123748282612075565b9150506040830151848203604086015261238e8282612075565b915050606083015184820360608601526123a88282612075565b915050608083015184820360808601526123c28282612075565b91505060a08301516123d760a08601826123e2565b508091505092915050565b6123eb8161275a565b82525050565b6123fa8161275a565b82525050565b60006040820190506124156000830185611ebf565b8181036020830152612427818461203c565b90509392505050565b60006060820190506124456000830186611ebf565b61245260208301856123f1565b61245f60408301846123f1565b949350505050565b600060208201905081810360008301526124818184611edd565b905092915050565b600060208201905081810360008301526124a38184611f52565b905092915050565b600060208201905081810360008301526124c58184611fc7565b905092915050565b600060208201905081810360008301526124e781846121a0565b905092915050565b600060208201905081810360008301526125098184612344565b905092915050565b600060408201905061252660008301856123f1565b8181036020830152612538818461203c565b90509392505050565b600060608201905061255660008301866123f1565b8181036020830152612568818561203c565b905061257760408301846123f1565b949350505050565b600060408201905061259460008301856123f1565b81810360208301526125a681846120ae565b90509392505050565b6000604051905081810181811067ffffffffffffffff821117156125d257600080fd5b8060405250919050565b600067ffffffffffffffff8211156125f357600080fd5b602082029050602081019050919050565b600067ffffffffffffffff82111561261b57600080fd5b601f19601f8301169050602081019050919050565b6000819050602082019050919050565b6000819050602082019050919050565b6000819050602082019050919050565b60008190508160005260206000209050919050565b600081519050919050565b600081519050919050565b600081519050919050565b600081519050919050565b600081519050919050565b6000602082019050919050565b6000602082019050919050565b6000602082019050919050565b600082825260208201905092915050565b600082825260208201905092915050565b600082825260208201905092915050565b600082825260208201905092915050565b600082825260208201905092915050565b60006127338261273a565b9050919050565b600073ffffffffffffffffffffffffffffffffffffffff82169050919050565b6000819050919050565b600061276f82612776565b9050919050565b600061278182612788565b9050919050565b60006127938261273a565b9050919050565b82818337600083830152505050565b60005b838110156127c75780820151818401526020810190506127ac565b838111156127d6576000848401525b50505050565b6000601f19601f8301169050919050565b6127f68161275a565b811461280157600080fd5b5056fea365627a7a723158202b2c22d251a11fd84f9bf4a40ae16de599bc52813dbb50e57982853d3f6d5fc06c6578706572696d656e74616cf564736f6c6343000510004068747470733a2f2f696d616765732e70726963656f79652e706b2f6170706c652d6970686f6e652d78692d70616b697374616e2d70726963656f79652d6f696b316f2d353030783530302e77656270426c7565746f6f746820746563686e6f6c6f6779206c65747320796f7520636f6e6e656374206974207769746820636f6d70617469626c65206465766963657320776972656c6573736c7920486967682d7175616c6974792041414320617564696f206f666665727320696d6d657273697665206c697374656e696e6720657870657269656e6365204275696c742d696e206d6963726f70686f6e6520616c6c6f777320796f7520746f2074616b652063616c6c73207768696c6520776f726b696e67416972706f647320576972656c65737320426c7565746f6f7468204865616470686f6e657368747470733a2f2f726562656c746563682e636f6d2f77702d636f6e74656e742f75706c6f6164732f323032312f31302f4d4d4537332e6a7067",
  "source": "// SPDX-License-Identifier: MIT\r\npragma solidity >=0.4.22 <=0.8.17;\r\n\r\npragma experimental ABIEncoderV2;\r\n\r\ncontract Store {\r\n    struct User {\r\n        address id;\r\n        string username;\r\n        string name;\r\n        string billingAdd;\r\n        string password;\r\n        uint256 orderCount;\r\n    }\r\n\r\n    struct Product {\r\n        uint256 id;\r\n        string name;\r\n        uint256 price;\r\n        uint256 quantity;\r\n        string description;\r\n        string imgUrl;\r\n        uint256 reviewCount;\r\n    }\r\n\r\n    struct Review {\r\n        address user;\r\n        uint256 rating;\r\n        string review;\r\n    }\r\n\r\n    struct Order {\r\n        uint256 id;\r\n        uint256 amount;\r\n        string shippingDetails;\r\n        uint256 orderProductCount;\r\n    }\r\n\r\n    struct OrderProduct {\r\n        uint256 id;\r\n        uint256 quantity;\r\n    }\r\n\r\n    // Mappings for handling user functionalities\r\n    mapping(address => User) userList;\r\n    mapping(address => mapping(uint256 => Order)) orderList;\r\n    mapping(address => mapping(uint256 => mapping(uint256 => Product))) orderProductList;\r\n\r\n    // Mappings for handling product functionalities\r\n    mapping(uint256 => Product) productList;\r\n    mapping(uint256 => mapping(uint256 => Review)) reviewList;\r\n\r\n    uint256 productCount = 0;\r\n\r\n    event UserAdded(address, string);\r\n    event ProductAdded(uint256, string);\r\n    event ReviewAdded(uint256, string, uint256);\r\n    event OrderPlaced(address, uint256, uint256);\r\n    event ProductReturned(uint256, string);\r\n    event ProductsReturned(Product[]);\r\n    event OrdersReturned(Order[]);\r\n    event ReviewsReturned(Review[]);\r\n\r\n    constructor() public {\r\n        addProduct(\r\n            \"Airpods Wireless Bluetooth Headphones\",\r\n            \"Bluetooth technology lets you connect it with compatible devices wirelessly High-quality AAC audio offers immersive listening experience Built-in microphone allows you to take calls while working\",\r\n            \"https://rebeltech.com/wp-content/uploads/2021/10/MME73.jpg\",\r\n            14999,\r\n            20\r\n        );\r\n        addProduct(\r\n            \"iPhone 11 Pro 256GB Memory\",\r\n            \"Bluetooth technology lets you connect it with compatible devices wirelessly High-quality AAC audio offers immersive listening experience Built-in microphone allows you to take calls while working\",\r\n            \"https://images.priceoye.pk/apple-iphone-xi-pakistan-priceoye-oik1o-500x500.webp\",\r\n            14999,\r\n            20\r\n        );\r\n        addProduct(\r\n            \"Cannon EOS 80D DSLR Camera\",\r\n            \"Bluetooth technology lets you connect it with compatible devices wirelessly High-quality AAC audio offers immersive listening experience Built-in microphone allows you to take calls while working\",\r\n            \"data:image\",\r\n            14999,\r\n            20\r\n        );\r\n    }\r\n\r\n    function addUser(\r\n        string memory _username,\r\n        string memory _name,\r\n        string memory _billingAdd,\r\n        string memory _password\r\n    ) public {\r\n        // require(\r\n        //     userList[msg.sender].id == msg.sender,\r\n        //     \"Store: addUser - User already exists\"\r\n        // );\r\n\r\n        userList[msg.sender] = User(\r\n            msg.sender,\r\n            _username,\r\n            _name,\r\n            _billingAdd,\r\n            _password,\r\n            0\r\n        );\r\n\r\n        emit UserAdded(msg.sender, _username);\r\n    }\r\n\r\n    function getUser() public view returns (User memory) {\r\n        return userList[msg.sender];\r\n    }\r\n\r\n    function addProduct(\r\n        string memory _name,\r\n        string memory _description,\r\n        string memory _imgUrl,\r\n        uint256 _price,\r\n        uint256 _quantity\r\n    ) public {\r\n        productList[productCount] = Product(\r\n            productCount,\r\n            _name,\r\n            _price,\r\n            _quantity,\r\n            _description,\r\n            _imgUrl,\r\n            0\r\n        );\r\n\r\n        productCount++;\r\n        emit ProductAdded(productCount, _name);\r\n    }\r\n\r\n    function getProduct(uint256 prodID) public returns (Product memory) {\r\n        emit ProductReturned(prodID, productList[prodID].name);\r\n        return productList[prodID];\r\n    }\r\n\r\n    function getProductList() public view returns (Product[] memory) {\r\n        Product[] memory _products = new Product[](productCount);\r\n\r\n        for (uint256 i = 0; i < productCount; i++) {\r\n            _products[i] = productList[i];\r\n        }\r\n\r\n        // emit ProductsReturned(_products);\r\n        return _products;\r\n    }\r\n\r\n    function addReview(\r\n        uint256 _productId,\r\n        uint256 _rating,\r\n        string memory _review\r\n    ) public {\r\n        // require(\r\n        //     userList[msg.sender].id == address(0),\r\n        //     \"Store: addReview - User does not exist\"\r\n        // );\r\n\r\n        // require(\r\n        //     _rating < 0 || _rating > 5,\r\n        //     \"Store: addReview - Rating should be between 0 and 5\"\r\n        // );\r\n\r\n        // require(\r\n        //     _productId < 0 || _productId > productCount,\r\n        //     \"Store: addReview - Product does not exist\"\r\n        // );\r\n\r\n        // require(\r\n        //     productList[_productId].id != _productId,\r\n        //     \"Store: addReview - Product does not exist\"\r\n        // );\r\n\r\n        reviewList[_productId][productList[_productId].reviewCount] = Review(\r\n            msg.sender,\r\n            _rating,\r\n            _review\r\n        );\r\n\r\n        productList[_productId].reviewCount++;\r\n\r\n        emit ReviewAdded(\r\n            productList[_productId].reviewCount - 1,\r\n            _review,\r\n            _rating\r\n        );\r\n    }\r\n\r\n    function getReviews(uint256 _productId) public view returns (Review[] memory) {\r\n        Review[] memory reviews = new Review[](\r\n            productList[_productId].reviewCount\r\n        );\r\n\r\n        for (uint256 i = 0; i < productList[_productId].reviewCount; i++) {\r\n            reviews[i] = reviewList[_productId][i];\r\n        }\r\n\r\n        // emit ReviewsReturned(reviews);\r\n        return reviews;\r\n    }\r\n\r\n    function addOrder(\r\n        OrderProduct[] memory _products,\r\n        string memory _shippingDet\r\n    ) public {\r\n        // require(\r\n        //     userList[msg.sender].id == address(0),\r\n        //     \"Store: addOrder - User does not exist\"\r\n        // );\r\n\r\n        uint256 total = 0;\r\n        // for (uint256 i = 0; i < _products.length; i++) {\r\n        //     require(\r\n        //         _products[i].id < 0 || _products[i].id > productCount,\r\n        //         \"Store: addOrder - Product does not exist\"\r\n        //     );\r\n\r\n        //     require(\r\n        //         productList[_products[i].id].id != _products[i].id,\r\n        //         \"Store: addOrder - Product does not exist\"\r\n        //     );\r\n\r\n        //     require(\r\n        //         productList[_products[i].quantity].quantity == 0,\r\n        //         \"Store: addOrder - Product out of stock\"\r\n        //     );\r\n        // }\r\n\r\n        for (uint256 i = 0; i < _products.length; i++) {\r\n            productList[_products[i].id].quantity -= _products[i].quantity;\r\n            total += productList[_products[i].id].price;\r\n\r\n            orderProductList[msg.sender][userList[msg.sender].orderCount][\r\n                i\r\n            ] = Product(\r\n                _products[i].id,\r\n                productList[_products[i].id].name,\r\n                productList[_products[i].id].price,\r\n                _products[i].quantity,\r\n                productList[_products[i].id].description,\r\n                productList[_products[i].id].imgUrl,\r\n                productList[_products[i].id].reviewCount\r\n            );\r\n        }\r\n\r\n        orderList[msg.sender][userList[msg.sender].orderCount] = Order(\r\n            userList[msg.sender].orderCount,\r\n            total,\r\n            _shippingDet,\r\n            _products.length\r\n        );\r\n\r\n        userList[msg.sender].orderCount++;\r\n\r\n        emit OrderPlaced(\r\n            msg.sender,\r\n            userList[msg.sender].orderCount - 1,\r\n            total\r\n        );\r\n    }\r\n\r\n    function getOrders() public view returns(Order[] memory) {\r\n        Order[] memory _orders = new Order[](userList[msg.sender].orderCount);\r\n\r\n        for (uint256 i = 0; i < userList[msg.sender].orderCount; i++) {\r\n            _orders[i] = orderList[msg.sender][i];\r\n        }\r\n\r\n        // emit OrdersReturned(_orders);\r\n        return _orders;\r\n    }\r\n}\r\n",
  "sourcePath": "C:\\Users\\xlive\\Blockchain-MERN-Ecommerce\\solidity\\contracts\\Store.sol",
  "compiler": {
    "name": "solc",
    "version": "0.5.16+commit.9c3226ce.Emscripten.clang"
  },
  "schemaVersion": "3.4.11",
  "updatedAt": "2022-12-03T10:36:33.219Z",
  "devdoc": {
    "methods": {}
  },
  "userdoc": {
    "methods": {}
  }
}