{
  "contractName": "Store",
  "abi": [
    {
      "inputs": [],
      "payable": false,
      "stateMutability": "nonpayable",
      "type": "constructor"
    },
    {
      "anonymous": false,
      "inputs": [
        {
          "indexed": false,
          "internalType": "address",
          "name": "",
          "type": "address"
        },
        {
          "indexed": false,
          "internalType": "uint256",
          "name": "",
          "type": "uint256"
        },
        {
          "indexed": false,
          "internalType": "uint256",
          "name": "",
          "type": "uint256"
        }
      ],
      "name": "OrderPlaced",
      "type": "event"
    },
    {
      "anonymous": false,
      "inputs": [
        {
          "components": [
            {
              "internalType": "uint256",
              "name": "id",
              "type": "uint256"
            },
            {
              "internalType": "uint256",
              "name": "amount",
              "type": "uint256"
            },
            {
              "internalType": "string",
              "name": "shippingDetails",
              "type": "string"
            },
            {
              "internalType": "uint256",
              "name": "orderProductCount",
              "type": "uint256"
            }
          ],
          "indexed": false,
          "internalType": "struct Store.Order[]",
          "name": "",
          "type": "tuple[]"
        }
      ],
      "name": "OrdersReturned",
      "type": "event"
    },
    {
      "anonymous": false,
      "inputs": [
        {
          "indexed": false,
          "internalType": "uint256",
          "name": "",
          "type": "uint256"
        },
        {
          "indexed": false,
          "internalType": "string",
          "name": "",
          "type": "string"
        }
      ],
      "name": "ProductAdded",
      "type": "event"
    },
    {
      "anonymous": false,
      "inputs": [
        {
          "indexed": false,
          "internalType": "uint256",
          "name": "",
          "type": "uint256"
        },
        {
          "indexed": false,
          "internalType": "string",
          "name": "",
          "type": "string"
        }
      ],
      "name": "ProductReturned",
      "type": "event"
    },
    {
      "anonymous": false,
      "inputs": [
        {
          "components": [
            {
              "internalType": "uint256",
              "name": "id",
              "type": "uint256"
            },
            {
              "internalType": "string",
              "name": "name",
              "type": "string"
            },
            {
              "internalType": "uint256",
              "name": "price",
              "type": "uint256"
            },
            {
              "internalType": "uint256",
              "name": "quantity",
              "type": "uint256"
            },
            {
              "internalType": "string",
              "name": "description",
              "type": "string"
            },
            {
              "internalType": "string",
              "name": "imgUrl",
              "type": "string"
            },
            {
              "internalType": "uint256",
              "name": "reviewCount",
              "type": "uint256"
            }
          ],
          "indexed": false,
          "internalType": "struct Store.Product[]",
          "name": "",
          "type": "tuple[]"
        }
      ],
      "name": "ProductsReturned",
      "type": "event"
    },
    {
      "anonymous": false,
      "inputs": [
        {
          "indexed": false,
          "internalType": "uint256",
          "name": "",
          "type": "uint256"
        },
        {
          "indexed": false,
          "internalType": "string",
          "name": "",
          "type": "string"
        },
        {
          "indexed": false,
          "internalType": "uint256",
          "name": "",
          "type": "uint256"
        }
      ],
      "name": "ReviewAdded",
      "type": "event"
    },
    {
      "anonymous": false,
      "inputs": [
        {
          "components": [
            {
              "internalType": "address",
              "name": "user",
              "type": "address"
            },
            {
              "internalType": "uint256",
              "name": "rating",
              "type": "uint256"
            },
            {
              "internalType": "string",
              "name": "review",
              "type": "string"
            }
          ],
          "indexed": false,
          "internalType": "struct Store.Review[]",
          "name": "",
          "type": "tuple[]"
        }
      ],
      "name": "ReviewsReturned",
      "type": "event"
    },
    {
      "anonymous": false,
      "inputs": [
        {
          "indexed": false,
          "internalType": "address",
          "name": "",
          "type": "address"
        },
        {
          "indexed": false,
          "internalType": "string",
          "name": "",
          "type": "string"
        }
      ],
      "name": "UserAdded",
      "type": "event"
    },
    {
      "constant": false,
      "inputs": [
        {
          "internalType": "string",
          "name": "_email",
          "type": "string"
        },
        {
          "internalType": "string",
          "name": "_name",
          "type": "string"
        },
        {
          "internalType": "string",
          "name": "_password",
          "type": "string"
        },
        {
          "internalType": "string",
          "name": "_billingAdd",
          "type": "string"
        }
      ],
      "name": "addUser",
      "outputs": [],
      "payable": false,
      "stateMutability": "nonpayable",
      "type": "function"
    },
    {
      "constant": true,
      "inputs": [],
      "name": "getUser",
      "outputs": [
        {
          "components": [
            {
              "internalType": "address",
              "name": "id",
              "type": "address"
            },
            {
              "internalType": "bytes32",
              "name": "email",
              "type": "bytes32"
            },
            {
              "internalType": "string",
              "name": "name",
              "type": "string"
            },
            {
              "internalType": "string",
              "name": "billingAdd",
              "type": "string"
            },
            {
              "internalType": "bytes32",
              "name": "password",
              "type": "bytes32"
            },
            {
              "internalType": "uint256",
              "name": "orderCount",
              "type": "uint256"
            },
            {
              "internalType": "bool",
              "name": "isUser",
              "type": "bool"
            }
          ],
          "internalType": "struct Store.User",
          "name": "",
          "type": "tuple"
        }
      ],
      "payable": false,
      "stateMutability": "view",
      "type": "function"
    },
    {
      "constant": true,
      "inputs": [
        {
          "internalType": "string",
          "name": "_email",
          "type": "string"
        },
        {
          "internalType": "string",
          "name": "_password",
          "type": "string"
        }
      ],
      "name": "authenticateUser",
      "outputs": [
        {
          "internalType": "bool",
          "name": "",
          "type": "bool"
        }
      ],
      "payable": false,
      "stateMutability": "view",
      "type": "function"
    },
    {
      "constant": false,
      "inputs": [
        {
          "internalType": "string",
          "name": "_name",
          "type": "string"
        },
        {
          "internalType": "string",
          "name": "_description",
          "type": "string"
        },
        {
          "internalType": "string",
          "name": "_imgUrl",
          "type": "string"
        },
        {
          "internalType": "uint256",
          "name": "_price",
          "type": "uint256"
        },
        {
          "internalType": "uint256",
          "name": "_quantity",
          "type": "uint256"
        }
      ],
      "name": "addProduct",
      "outputs": [],
      "payable": false,
      "stateMutability": "nonpayable",
      "type": "function"
    },
    {
      "constant": true,
      "inputs": [
        {
          "internalType": "uint256",
          "name": "prodID",
          "type": "uint256"
        }
      ],
      "name": "getProduct",
      "outputs": [
        {
          "components": [
            {
              "internalType": "uint256",
              "name": "id",
              "type": "uint256"
            },
            {
              "internalType": "string",
              "name": "name",
              "type": "string"
            },
            {
              "internalType": "uint256",
              "name": "price",
              "type": "uint256"
            },
            {
              "internalType": "uint256",
              "name": "quantity",
              "type": "uint256"
            },
            {
              "internalType": "string",
              "name": "description",
              "type": "string"
            },
            {
              "internalType": "string",
              "name": "imgUrl",
              "type": "string"
            },
            {
              "internalType": "uint256",
              "name": "reviewCount",
              "type": "uint256"
            }
          ],
          "internalType": "struct Store.Product",
          "name": "",
          "type": "tuple"
        }
      ],
      "payable": false,
      "stateMutability": "view",
      "type": "function"
    },
    {
      "constant": true,
      "inputs": [],
      "name": "getProductList",
      "outputs": [
        {
          "components": [
            {
              "internalType": "uint256",
              "name": "id",
              "type": "uint256"
            },
            {
              "internalType": "string",
              "name": "name",
              "type": "string"
            },
            {
              "internalType": "uint256",
              "name": "price",
              "type": "uint256"
            },
            {
              "internalType": "uint256",
              "name": "quantity",
              "type": "uint256"
            },
            {
              "internalType": "string",
              "name": "description",
              "type": "string"
            },
            {
              "internalType": "string",
              "name": "imgUrl",
              "type": "string"
            },
            {
              "internalType": "uint256",
              "name": "reviewCount",
              "type": "uint256"
            }
          ],
          "internalType": "struct Store.Product[]",
          "name": "",
          "type": "tuple[]"
        }
      ],
      "payable": false,
      "stateMutability": "view",
      "type": "function"
    },
    {
      "constant": false,
      "inputs": [
        {
          "internalType": "uint256",
          "name": "_productId",
          "type": "uint256"
        },
        {
          "internalType": "uint256",
          "name": "_rating",
          "type": "uint256"
        },
        {
          "internalType": "string",
          "name": "_review",
          "type": "string"
        }
      ],
      "name": "addReview",
      "outputs": [],
      "payable": false,
      "stateMutability": "nonpayable",
      "type": "function"
    },
    {
      "constant": true,
      "inputs": [
        {
          "internalType": "uint256",
          "name": "_productId",
          "type": "uint256"
        }
      ],
      "name": "getReviews",
      "outputs": [
        {
          "components": [
            {
              "internalType": "address",
              "name": "user",
              "type": "address"
            },
            {
              "internalType": "uint256",
              "name": "rating",
              "type": "uint256"
            },
            {
              "internalType": "string",
              "name": "review",
              "type": "string"
            }
          ],
          "internalType": "struct Store.Review[]",
          "name": "",
          "type": "tuple[]"
        }
      ],
      "payable": false,
      "stateMutability": "view",
      "type": "function"
    },
    {
      "constant": false,
      "inputs": [
        {
          "components": [
            {
              "internalType": "uint256",
              "name": "id",
              "type": "uint256"
            },
            {
              "internalType": "uint256",
              "name": "quantity",
              "type": "uint256"
            }
          ],
          "internalType": "struct Store.OrderProduct[]",
          "name": "_products",
          "type": "tuple[]"
        },
        {
          "internalType": "string",
          "name": "_shippingDet",
          "type": "string"
        }
      ],
      "name": "addOrder",
      "outputs": [],
      "payable": false,
      "stateMutability": "nonpayable",
      "type": "function"
    },
    {
      "constant": true,
      "inputs": [],
      "name": "getOrders",
      "outputs": [
        {
          "components": [
            {
              "internalType": "uint256",
              "name": "id",
              "type": "uint256"
            },
            {
              "internalType": "uint256",
              "name": "amount",
              "type": "uint256"
            },
            {
              "internalType": "string",
              "name": "shippingDetails",
              "type": "string"
            },
            {
              "internalType": "uint256",
              "name": "orderProductCount",
              "type": "uint256"
            }
          ],
          "internalType": "struct Store.Order[]",
          "name": "",
          "type": "tuple[]"
        }
      ],
      "payable": false,
      "stateMutability": "view",
      "type": "function"
    }
  ],
  "bytecode": "0x608060405260006005553480156200001657600080fd5b506200007b604051806060016040528060258152602001620037f96025913960405180610100016040528060c381526020016200373660c391396040518060600160405280603a81526020016200381e603a9139613a9760146200019d60201b60201c565b620000fb6040518060400160405280601a81526020017f6950686f6e652031312050726f203235364742204d656d6f727900000000000081525060405180610100016040528060c381526020016200373660c391396040518060800160405280604f8152602001620036e7604f9139613a9760146200019d60201b60201c565b620001976040518060400160405280601a81526020017f43616e6e6f6e20454f53203830442044534c522043616d65726100000000000081525060405180610100016040528060c381526020016200373660c391396040518060400160405280600a81526020017f646174613a696d61676500000000000000000000000000000000000000000000815250613a9760146200019d60201b60201c565b62000468565b6040518060e001604052806005548152602001868152602001838152602001828152602001858152602001848152602001600081525060036000600554815260200190815260200160002060008201518160000155602082015181600101908051906020019062000210929190620002c6565b506040820151816002015560608201518160030155608082015181600401908051906020019062000243929190620002c6565b5060a082015181600501908051906020019062000262929190620002c6565b5060c082015181600601559050506005600081548092919060010191905055507f259101de1f87b04b9ee0332ce5e3cc508014004bf283424aead6cd8692f5cf9860055486604051620002b7929190620003c7565b60405180910390a15050505050565b828054600181600116156101000203166002900490600052602060002090601f016020900481019282601f106200030957805160ff19168380011785556200033a565b828001600101855582156200033a579182015b82811115620003395782518255916020019190600101906200031c565b5b5090506200034991906200034d565b5090565b6200037291905b808211156200036e57600081600090555060010162000354565b5090565b90565b60006200038282620003fb565b6200038e818562000406565b9350620003a081856020860162000421565b620003ab8162000457565b840191505092915050565b620003c18162000417565b82525050565b6000604082019050620003de6000830185620003b6565b8181036020830152620003f2818462000375565b90509392505050565b600081519050919050565b600082825260208201905092915050565b6000819050919050565b60005b838110156200044157808201518184015260208101905062000424565b8381111562000451576000848401525b50505050565b6000601f19601f8301169050919050565b61326f80620004786000396000f3fe608060405234801561001057600080fd5b506004361061009e5760003560e01c8063524a046e11610066578063524a046e14610147578063832880e7146101635780639d4a225514610181578063b9db15b4146101b1578063d8ea04db146101e15761009e565b806301cda3ac146100a35780632e2dc43e146100bf57806334d2c0ad146100dd5780633e9e27aa146100fb578063516a543514610117575b600080fd5b6100bd60048036036100b89190810190612267565b6101fd565b005b6100c7610466565b6040516100d49190612d3f565b60405180910390f35b6100e561067d565b6040516100f29190612d61565b60405180910390f35b61011560048036036101109190810190612412565b610927565b005b610131600480360361012c91908101906121fb565b610c09565b60405161013e9190612da5565b60405180910390f35b610161600480360361015c919081019061232a565b610d7f565b005b61016b610ea0565b6040516101789190612f34565b60405180910390f35b61019b600480360361019691908101906123e9565b6110c9565b6040516101a89190612d83565b60405180910390f35b6101cb60048036036101c691908101906123e9565b6112f5565b6040516101d89190612f12565b60405180910390f35b6101fb60048036036101f6919081019061218f565b611582565b005b6000803373ffffffffffffffffffffffffffffffffffffffff1673ffffffffffffffffffffffffffffffffffffffff16815260200190815260200160002060060160009054906101000a900460ff161561028c576040517f08c379a000000000000000000000000000000000000000000000000000000000815260040161028390612e52565b60405180910390fd5b6040518060e001604052803373ffffffffffffffffffffffffffffffffffffffff168152602001856040516020016102c49190612dc0565b60405160208183030381529060405280519060200120815260200184815260200182815260200183336040516020016102fe929190612de2565b60405160208183030381529060405280519060200120815260200160008152602001600115158152506000803373ffffffffffffffffffffffffffffffffffffffff1673ffffffffffffffffffffffffffffffffffffffff16815260200190815260200160002060008201518160000160006101000a81548173ffffffffffffffffffffffffffffffffffffffff021916908373ffffffffffffffffffffffffffffffffffffffff1602179055506020820151816001015560408201518160020190805190602001906103d2929190611e7e565b5060608201518160030190805190602001906103ef929190611e7e565b506080820151816004015560a0820151816005015560c08201518160060160006101000a81548160ff0219169083151502179055509050507fa56e21173460286ea98fc3defc7671b9b8e2ff0c6acea8d6ed30b343724e23fa3385604051610458929190612cd8565b60405180910390a150505050565b6060806000803373ffffffffffffffffffffffffffffffffffffffff1673ffffffffffffffffffffffffffffffffffffffff168152602001908152602001600020600501546040519080825280602002602001820160405280156104e457816020015b6104d1611efe565b8152602001906001900390816104c95790505b50905060008090505b6000803373ffffffffffffffffffffffffffffffffffffffff1673ffffffffffffffffffffffffffffffffffffffff1681526020019081526020016000206005015481101561067557600160003373ffffffffffffffffffffffffffffffffffffffff1673ffffffffffffffffffffffffffffffffffffffff16815260200190815260200160002060008281526020019081526020016000206040518060800160405290816000820154815260200160018201548152602001600282018054600181600116156101000203166002900480601f01602080910402602001604051908101604052809291908181526020018280546001816001161561010002031660029004801561063e5780601f106106135761010080835404028352916020019161063e565b820191906000526020600020905b81548152906001019060200180831161062157829003601f168201915b5050505050815260200160038201548152505082828151811061065d57fe5b602002602001018190525080806001019150506104ed565b508091505090565b6060806005546040519080825280602002602001820160405280156106bc57816020015b6106a9611f26565b8152602001906001900390816106a15790505b50905060008090505b60055481101561091f57600360008281526020019081526020016000206040518060e001604052908160008201548152602001600182018054600181600116156101000203166002900480601f0160208091040260200160405190810160405280929190818152602001828054600181600116156101000203166002900480156107905780601f1061076557610100808354040283529160200191610790565b820191906000526020600020905b81548152906001019060200180831161077357829003601f168201915b505050505081526020016002820154815260200160038201548152602001600482018054600181600116156101000203166002900480601f0160208091040260200160405190810160405280929190818152602001828054600181600116156101000203166002900480156108465780601f1061081b57610100808354040283529160200191610846565b820191906000526020600020905b81548152906001019060200180831161082957829003601f168201915b50505050508152602001600582018054600181600116156101000203166002900480601f0160208091040260200160405190810160405280929190818152602001828054600181600116156101000203166002900480156108e85780601f106108bd576101008083540402835291602001916108e8565b820191906000526020600020905b8154815290600101906020018083116108cb57829003601f168201915b5050505050815260200160068201548152505082828151811061090757fe5b602002602001018190525080806001019150506106c5565b508091505090565b6000803373ffffffffffffffffffffffffffffffffffffffff1673ffffffffffffffffffffffffffffffffffffffff16815260200190815260200160002060060160009054906101000a900460ff166109b5576040517f08c379a00000000000000000000000000000000000000000000000000000000081526004016109ac90612e32565b60405180910390fd5b6000821180156109c55750600682105b610a04576040517f08c379a00000000000000000000000000000000000000000000000000000000081526004016109fb90612e92565b60405180910390fd5b60008310158015610a1757506005548311155b610a56576040517f08c379a0000000000000000000000000000000000000000000000000000000008152600401610a4d90612eb2565b60405180910390fd5b82600360008581526020019081526020016000206000015414610aae576040517f08c379a0000000000000000000000000000000000000000000000000000000008152600401610aa590612eb2565b60405180910390fd5b60405180606001604052803373ffffffffffffffffffffffffffffffffffffffff168152602001838152602001828152506004600085815260200190815260200160002060006003600087815260200190815260200160002060060154815260200190815260200160002060008201518160000160006101000a81548173ffffffffffffffffffffffffffffffffffffffff021916908373ffffffffffffffffffffffffffffffffffffffff160217905550602082015181600101556040820151816002019080519060200190610b86929190611e7e565b5090505060036000848152602001908152602001600020600601600081548092919060010191905055507f416797b5e1d4d016e87e3ea4c0a23f381f77ce882c6730010c07bd2b1608e2bb60016003600086815260200190815260200160002060060154038284604051610bfc93929190612f86565b60405180910390a1505050565b60008060003373ffffffffffffffffffffffffffffffffffffffff1673ffffffffffffffffffffffffffffffffffffffff16815260200190815260200160002060060160009054906101000a900460ff16610c99576040517f08c379a0000000000000000000000000000000000000000000000000000000008152600401610c9090612e32565b60405180910390fd5b82604051602001610caa9190612dc0565b604051602081830303815290604052805190602001206000803373ffffffffffffffffffffffffffffffffffffffff1673ffffffffffffffffffffffffffffffffffffffff16815260200190815260200160002060010154148015610d7757508133604051602001610d1d929190612de2565b604051602081830303815290604052805190602001206000803373ffffffffffffffffffffffffffffffffffffffff1673ffffffffffffffffffffffffffffffffffffffff16815260200190815260200160002060040154145b905092915050565b6040518060e0016040528060055481526020018681526020018381526020018281526020018581526020018481526020016000815250600360006005548152602001908152602001600020600082015181600001556020820151816001019080519060200190610df0929190611e7e565b5060408201518160020155606082015181600301556080820151816004019080519060200190610e21929190611e7e565b5060a0820151816005019080519060200190610e3e929190611e7e565b5060c082015181600601559050506005600081548092919060010191905055507f259101de1f87b04b9ee0332ce5e3cc508014004bf283424aead6cd8692f5cf9860055486604051610e91929190612f56565b60405180910390a15050505050565b610ea8611f63565b6000803373ffffffffffffffffffffffffffffffffffffffff1673ffffffffffffffffffffffffffffffffffffffff1681526020019081526020016000206040518060e00160405290816000820160009054906101000a900473ffffffffffffffffffffffffffffffffffffffff1673ffffffffffffffffffffffffffffffffffffffff1673ffffffffffffffffffffffffffffffffffffffff16815260200160018201548152602001600282018054600181600116156101000203166002900480601f016020809104026020016040519081016040528092919081815260200182805460018160011615610100020316600290048015610fea5780601f10610fbf57610100808354040283529160200191610fea565b820191906000526020600020905b815481529060010190602001808311610fcd57829003601f168201915b50505050508152602001600382018054600181600116156101000203166002900480601f01602080910402602001604051908101604052809291908181526020018280546001816001161561010002031660029004801561108c5780601f106110615761010080835404028352916020019161108c565b820191906000526020600020905b81548152906001019060200180831161106f57829003601f168201915b5050505050815260200160048201548152602001600582015481526020016006820160009054906101000a900460ff161515151581525050905090565b6060600082101580156110de57506005548211155b61111d576040517f08c379a000000000000000000000000000000000000000000000000000000000815260040161111490612e12565b60405180910390fd5b6060600360008481526020019081526020016000206006015460405190808252806020026020018201604052801561116f57816020015b61115c611fbe565b8152602001906001900390816111545790505b50905060008090505b60036000858152602001908152602001600020600601548110156112eb576004600085815260200190815260200160002060008281526020019081526020016000206040518060600160405290816000820160009054906101000a900473ffffffffffffffffffffffffffffffffffffffff1673ffffffffffffffffffffffffffffffffffffffff1673ffffffffffffffffffffffffffffffffffffffff16815260200160018201548152602001600282018054600181600116156101000203166002900480601f0160208091040260200160405190810160405280929190818152602001828054600181600116156101000203166002900480156112be5780601f10611293576101008083540402835291602001916112be565b820191906000526020600020905b8154815290600101906020018083116112a157829003601f168201915b5050505050815250508282815181106112d357fe5b60200260200101819052508080600101915050611178565b5080915050919050565b6112fd611ff5565b6000821015801561131057506005548211155b61134f576040517f08c379a000000000000000000000000000000000000000000000000000000000815260040161134690612ed2565b60405180910390fd5b600360008381526020019081526020016000206040518060e001604052908160008201548152602001600182018054600181600116156101000203166002900480601f0160208091040260200160405190810160405280929190818152602001828054600181600116156101000203166002900480156114105780601f106113e557610100808354040283529160200191611410565b820191906000526020600020905b8154815290600101906020018083116113f357829003601f168201915b505050505081526020016002820154815260200160038201548152602001600482018054600181600116156101000203166002900480601f0160208091040260200160405190810160405280929190818152602001828054600181600116156101000203166002900480156114c65780601f1061149b576101008083540402835291602001916114c6565b820191906000526020600020905b8154815290600101906020018083116114a957829003601f168201915b50505050508152602001600582018054600181600116156101000203166002900480601f0160208091040260200160405190810160405280929190818152602001828054600181600116156101000203166002900480156115685780601f1061153d57610100808354040283529160200191611568565b820191906000526020600020905b81548152906001019060200180831161154b57829003601f168201915b505050505081526020016006820154815250509050919050565b6000803373ffffffffffffffffffffffffffffffffffffffff1673ffffffffffffffffffffffffffffffffffffffff16815260200190815260200160002060060160009054906101000a900460ff16611610576040517f08c379a000000000000000000000000000000000000000000000000000000000815260040161160790612e32565b60405180910390fd5b600080905060008090505b83518110156117a757600084828151811061163257fe5b60200260200101516000015110158015611665575060055484828151811061165657fe5b60200260200101516000015111155b6116a4576040517f08c379a000000000000000000000000000000000000000000000000000000000815260040161169b90612e72565b60405180910390fd5b8381815181106116b057fe5b602002602001015160000151600360008684815181106116cc57fe5b6020026020010151600001518152602001908152602001600020600001541461172a576040517f08c379a000000000000000000000000000000000000000000000000000000000815260040161172190612e72565b60405180910390fd5b60006003600086848151811061173c57fe5b6020026020010151600001518152602001908152602001600020600301541161179a576040517f08c379a000000000000000000000000000000000000000000000000000000000815260040161179190612ef2565b60405180910390fd5b808060010191505061161b565b5060008090505b8351811015611c76578381815181106117c357fe5b602002602001015160200151600360008684815181106117df57fe5b6020026020010151600001518152602001908152602001600020600301600082825403925050819055506003600085838151811061181957fe5b602002602001015160000151815260200190815260200160002060020154820191506040518060e0016040528085838151811061185257fe5b60200260200101516000015181526020016003600087858151811061187357fe5b60200260200101516000015181526020019081526020016000206001018054600181600116156101000203166002900480601f0160208091040260200160405190810160405280929190818152602001828054600181600116156101000203166002900480156119245780601f106118f957610100808354040283529160200191611924565b820191906000526020600020905b81548152906001019060200180831161190757829003601f168201915b505050505081526020016003600087858151811061193e57fe5b602002602001015160000151815260200190815260200160002060020154815260200185838151811061196d57fe5b60200260200101516020015181526020016003600087858151811061198e57fe5b60200260200101516000015181526020019081526020016000206004018054600181600116156101000203166002900480601f016020809104026020016040519081016040528092919081815260200182805460018160011615610100020316600290048015611a3f5780601f10611a1457610100808354040283529160200191611a3f565b820191906000526020600020905b815481529060010190602001808311611a2257829003601f168201915b5050505050815260200160036000878581518110611a5957fe5b60200260200101516000015181526020019081526020016000206005018054600181600116156101000203166002900480601f016020809104026020016040519081016040528092919081815260200182805460018160011615610100020316600290048015611b0a5780601f10611adf57610100808354040283529160200191611b0a565b820191906000526020600020905b815481529060010190602001808311611aed57829003601f168201915b5050505050815260200160036000878581518110611b2457fe5b602002602001015160000151815260200190815260200160002060060154815250600260003373ffffffffffffffffffffffffffffffffffffffff1673ffffffffffffffffffffffffffffffffffffffff16815260200190815260200160002060008060003373ffffffffffffffffffffffffffffffffffffffff1673ffffffffffffffffffffffffffffffffffffffff1681526020019081526020016000206005015481526020019081526020016000206000838152602001908152602001600020600082015181600001556020820151816001019080519060200190611c0d929190611e7e565b5060408201518160020155606082015181600301556080820151816004019080519060200190611c3e929190611e7e565b5060a0820151816005019080519060200190611c5b929190611e7e565b5060c0820151816006015590505080806001019150506117ae565b5060405180608001604052806000803373ffffffffffffffffffffffffffffffffffffffff1673ffffffffffffffffffffffffffffffffffffffff1681526020019081526020016000206005015481526020018281526020018381526020018451815250600160003373ffffffffffffffffffffffffffffffffffffffff1673ffffffffffffffffffffffffffffffffffffffff16815260200190815260200160002060008060003373ffffffffffffffffffffffffffffffffffffffff1673ffffffffffffffffffffffffffffffffffffffff16815260200190815260200160002060050154815260200190815260200160002060008201518160000155602082015181600101556040820151816002019080519060200190611d9b929190611e7e565b50606082015181600301559050506000803373ffffffffffffffffffffffffffffffffffffffff1673ffffffffffffffffffffffffffffffffffffffff168152602001908152602001600020600501600081548092919060010191905055507f03f23a9b67af957c8605376a4f515b53f102d4ad7f4da099bd1aff8e3ee13fec3360016000803373ffffffffffffffffffffffffffffffffffffffff1673ffffffffffffffffffffffffffffffffffffffff168152602001908152602001600020600501540383604051611e7193929190612d08565b60405180910390a1505050565b828054600181600116156101000203166002900490600052602060002090601f016020900481019282601f10611ebf57805160ff1916838001178555611eed565b82800160010185558215611eed579182015b82811115611eec578251825591602001919060010190611ed1565b5b509050611efa9190612032565b5090565b6040518060800160405280600081526020016000815260200160608152602001600081525090565b6040518060e00160405280600081526020016060815260200160008152602001600081526020016060815260200160608152602001600081525090565b6040518060e00160405280600073ffffffffffffffffffffffffffffffffffffffff16815260200160008019168152602001606081526020016060815260200160008019168152602001600081526020016000151581525090565b6040518060600160405280600073ffffffffffffffffffffffffffffffffffffffff16815260200160008152602001606081525090565b6040518060e00160405280600081526020016060815260200160008152602001600081526020016060815260200160608152602001600081525090565b61205491905b80821115612050576000816000905550600101612038565b5090565b90565b600082601f83011261206857600080fd5b813561207b61207682612ff1565b612fc4565b915081818352602084019350602081019050838560408402820111156120a057600080fd5b60005b838110156120d057816120b6888261212e565b8452602084019350604083019250506001810190506120a3565b5050505092915050565b600082601f8301126120eb57600080fd5b81356120fe6120f982613019565b612fc4565b9150808252602083016020830185838301111561211a57600080fd5b6121258382846131c2565b50505092915050565b60006040828403121561214057600080fd5b61214a6040612fc4565b9050600061215a8482850161217a565b600083015250602061216e8482850161217a565b60208301525092915050565b60008135905061218981613215565b92915050565b600080604083850312156121a257600080fd5b600083013567ffffffffffffffff8111156121bc57600080fd5b6121c885828601612057565b925050602083013567ffffffffffffffff8111156121e557600080fd5b6121f1858286016120da565b9150509250929050565b6000806040838503121561220e57600080fd5b600083013567ffffffffffffffff81111561222857600080fd5b612234858286016120da565b925050602083013567ffffffffffffffff81111561225157600080fd5b61225d858286016120da565b9150509250929050565b6000806000806080858703121561227d57600080fd5b600085013567ffffffffffffffff81111561229757600080fd5b6122a3878288016120da565b945050602085013567ffffffffffffffff8111156122c057600080fd5b6122cc878288016120da565b935050604085013567ffffffffffffffff8111156122e957600080fd5b6122f5878288016120da565b925050606085013567ffffffffffffffff81111561231257600080fd5b61231e878288016120da565b91505092959194509250565b600080600080600060a0868803121561234257600080fd5b600086013567ffffffffffffffff81111561235c57600080fd5b612368888289016120da565b955050602086013567ffffffffffffffff81111561238557600080fd5b612391888289016120da565b945050604086013567ffffffffffffffff8111156123ae57600080fd5b6123ba888289016120da565b93505060606123cb8882890161217a565b92505060806123dc8882890161217a565b9150509295509295909350565b6000602082840312156123fb57600080fd5b60006124098482850161217a565b91505092915050565b60008060006060848603121561242757600080fd5b60006124358682870161217a565b93505060206124468682870161217a565b925050604084013567ffffffffffffffff81111561246357600080fd5b61246f868287016120da565b9150509250925092565b60006124858383612a10565b905092915050565b60006124998383612b1d565b905092915050565b60006124ad8383612bc7565b905092915050565b6124be8161318c565b82525050565b6124cd8161313a565b82525050565b6124dc81613128565b82525050565b60006124ed82613075565b6124f781856130d3565b93508360208202850161250985613045565b8060005b8581101561254557848403895281516125268582612479565b9450612531836130ac565b925060208a0199505060018101905061250d565b50829750879550505050505092915050565b600061256282613080565b61256c81856130e4565b93508360208202850161257e85613055565b8060005b858110156125ba578484038952815161259b858261248d565b94506125a6836130b9565b925060208a01995050600181019050612582565b50829750879550505050505092915050565b60006125d78261308b565b6125e181856130f5565b9350836020820285016125f385613065565b8060005b8581101561262f578484038952815161261085826124a1565b945061261b836130c6565b925060208a019950506001810190506125f7565b50829750879550505050505092915050565b61264a8161314c565b82525050565b6126598161314c565b82525050565b61266881613158565b82525050565b6000612679826130a1565b6126838185613117565b93506126938185602086016131d1565b61269c81613204565b840191505092915050565b60006126b282613096565b6126bc8185613106565b93506126cc8185602086016131d1565b6126d581613204565b840191505092915050565b60006126ed602a83613117565b91507f53746f72653a2067657452657669657773202d2050726f6475637420646f657360008301527f206e6f74206578697374000000000000000000000000000000000000000000006020830152604082019050919050565b6000612753602d83613117565b91507f53746f72653a2061757468656e74696361746555736572202d2055736572206460008301527f6f6573206e6f74206578697374000000000000000000000000000000000000006020830152604082019050919050565b60006127b9602483613117565b91507f53746f72653a2061646455736572202d205573657220616c726561647920657860008301527f69737473000000000000000000000000000000000000000000000000000000006020830152604082019050919050565b600061281f602883613117565b91507f53746f72653a206164644f72646572202d2050726f6475637420646f6573206e60008301527f6f742065786973740000000000000000000000000000000000000000000000006020830152604082019050919050565b6000612885603383613117565b91507f53746f72653a20616464526576696577202d20526174696e672073686f756c6460008301527f206265206265747765656e203120616e642035000000000000000000000000006020830152604082019050919050565b60006128eb602983613117565b91507f53746f72653a20616464526576696577202d2050726f6475637420646f65732060008301527f6e6f7420657869737400000000000000000000000000000000000000000000006020830152604082019050919050565b6000612951602683613117565b91507f53746f72653a2067657450726f64756374202d20496e76616c69642070726f6460008301527f75637420494400000000000000000000000000000000000000000000000000006020830152604082019050919050565b60006129b7602683613117565b91507f53746f72653a206164644f72646572202d2050726f64756374206f7574206f6660008301527f2073746f636b00000000000000000000000000000000000000000000000000006020830152604082019050919050565b6000608083016000830151612a286000860182612cba565b506020830151612a3b6020860182612cba565b5060408301518482036040860152612a5382826126a7565b9150506060830151612a686060860182612cba565b508091505092915050565b600060e083016000830151612a8b6000860182612cba565b5060208301518482036020860152612aa382826126a7565b9150506040830151612ab86040860182612cba565b506060830151612acb6060860182612cba565b5060808301518482036080860152612ae382826126a7565b91505060a083015184820360a0860152612afd82826126a7565b91505060c0830151612b1260c0860182612cba565b508091505092915050565b600060e083016000830151612b356000860182612cba565b5060208301518482036020860152612b4d82826126a7565b9150506040830151612b626040860182612cba565b506060830151612b756060860182612cba565b5060808301518482036080860152612b8d82826126a7565b91505060a083015184820360a0860152612ba782826126a7565b91505060c0830151612bbc60c0860182612cba565b508091505092915050565b6000606083016000830151612bdf60008601826124d3565b506020830151612bf26020860182612cba565b5060408301518482036040860152612c0a82826126a7565b9150508091505092915050565b600060e083016000830151612c2f60008601826124d3565b506020830151612c42602086018261265f565b5060408301518482036040860152612c5a82826126a7565b91505060608301518482036060860152612c7482826126a7565b9150506080830151612c89608086018261265f565b5060a0830151612c9c60a0860182612cba565b5060c0830151612caf60c0860182612641565b508091505092915050565b612cc381613182565b82525050565b612cd281613182565b82525050565b6000604082019050612ced60008301856124b5565b8181036020830152612cff818461266e565b90509392505050565b6000606082019050612d1d60008301866124b5565b612d2a6020830185612cc9565b612d376040830184612cc9565b949350505050565b60006020820190508181036000830152612d5981846124e2565b905092915050565b60006020820190508181036000830152612d7b8184612557565b905092915050565b60006020820190508181036000830152612d9d81846125cc565b905092915050565b6000602082019050612dba6000830184612650565b92915050565b60006020820190508181036000830152612dda818461266e565b905092915050565b60006040820190508181036000830152612dfc818561266e565b9050612e0b60208301846124c4565b9392505050565b60006020820190508181036000830152612e2b816126e0565b9050919050565b60006020820190508181036000830152612e4b81612746565b9050919050565b60006020820190508181036000830152612e6b816127ac565b9050919050565b60006020820190508181036000830152612e8b81612812565b9050919050565b60006020820190508181036000830152612eab81612878565b9050919050565b60006020820190508181036000830152612ecb816128de565b9050919050565b60006020820190508181036000830152612eeb81612944565b9050919050565b60006020820190508181036000830152612f0b816129aa565b9050919050565b60006020820190508181036000830152612f2c8184612a73565b905092915050565b60006020820190508181036000830152612f4e8184612c17565b905092915050565b6000604082019050612f6b6000830185612cc9565b8181036020830152612f7d818461266e565b90509392505050565b6000606082019050612f9b6000830186612cc9565b8181036020830152612fad818561266e565b9050612fbc6040830184612cc9565b949350505050565b6000604051905081810181811067ffffffffffffffff82111715612fe757600080fd5b8060405250919050565b600067ffffffffffffffff82111561300857600080fd5b602082029050602081019050919050565b600067ffffffffffffffff82111561303057600080fd5b601f19601f8301169050602081019050919050565b6000819050602082019050919050565b6000819050602082019050919050565b6000819050602082019050919050565b600081519050919050565b600081519050919050565b600081519050919050565b600081519050919050565b600081519050919050565b6000602082019050919050565b6000602082019050919050565b6000602082019050919050565b600082825260208201905092915050565b600082825260208201905092915050565b600082825260208201905092915050565b600082825260208201905092915050565b600082825260208201905092915050565b600061313382613162565b9050919050565b600061314582613162565b9050919050565b60008115159050919050565b6000819050919050565b600073ffffffffffffffffffffffffffffffffffffffff82169050919050565b6000819050919050565b60006131978261319e565b9050919050565b60006131a9826131b0565b9050919050565b60006131bb82613162565b9050919050565b82818337600083830152505050565b60005b838110156131ef5780820151818401526020810190506131d4565b838111156131fe576000848401525b50505050565b6000601f19601f8301169050919050565b61321e81613182565b811461322957600080fd5b5056fea365627a7a72315820caefbeb563df53d131e6662f9ab46281ef03549608fbc5eb60c50f799686c0d86c6578706572696d656e74616cf564736f6c6343000510004068747470733a2f2f696d616765732e70726963656f79652e706b2f6170706c652d6970686f6e652d78692d70616b697374616e2d70726963656f79652d6f696b316f2d353030783530302e77656270426c7565746f6f746820746563686e6f6c6f6779206c65747320796f7520636f6e6e656374206974207769746820636f6d70617469626c65206465766963657320776972656c6573736c7920486967682d7175616c6974792041414320617564696f206f666665727320696d6d657273697665206c697374656e696e6720657870657269656e6365204275696c742d696e206d6963726f70686f6e6520616c6c6f777320796f7520746f2074616b652063616c6c73207768696c6520776f726b696e67416972706f647320576972656c65737320426c7565746f6f7468204865616470686f6e657368747470733a2f2f726562656c746563682e636f6d2f77702d636f6e74656e742f75706c6f6164732f323032312f31302f4d4d4537332e6a7067",
  "source": "// SPDX-License-Identifier: MIT\r\npragma solidity >=0.4.22 <=0.8.17;\r\npragma experimental ABIEncoderV2;\r\n\r\ncontract Store {\r\n    struct User {\r\n        address id;\r\n        bytes32 email;\r\n        string name;\r\n        string billingAdd;\r\n        bytes32 password;\r\n        uint256 orderCount;\r\n        bool isUser;\r\n    }\r\n\r\n    struct Product {\r\n        uint256 id;\r\n        string name;\r\n        uint256 price;\r\n        uint256 quantity;\r\n        string description;\r\n        string imgUrl;\r\n        uint256 reviewCount;\r\n    }\r\n\r\n    struct Review {\r\n        address user;\r\n        uint256 rating;\r\n        string review;\r\n    }\r\n\r\n    struct Order {\r\n        uint256 id;\r\n        uint256 amount;\r\n        string shippingDetails;\r\n        uint256 orderProductCount;\r\n    }\r\n\r\n    struct OrderProduct {\r\n        uint256 id;\r\n        uint256 quantity;\r\n    }\r\n\r\n    // Mappings for handling user functionalities\r\n    mapping(address => User) userList;\r\n    mapping(address => mapping(uint256 => Order)) orderList;\r\n    mapping(address => mapping(uint256 => mapping(uint256 => Product))) orderProductList;\r\n\r\n    // Mappings for handling product functionalities\r\n    mapping(uint256 => Product) productList;\r\n    mapping(uint256 => mapping(uint256 => Review)) reviewList;\r\n\r\n    uint256 productCount = 0;\r\n\r\n    event UserAdded(address, string);\r\n    event ProductAdded(uint256, string);\r\n    event ReviewAdded(uint256, string, uint256);\r\n    event OrderPlaced(address, uint256, uint256);\r\n    event ProductReturned(uint256, string);\r\n    event ProductsReturned(Product[]);\r\n    event OrdersReturned(Order[]);\r\n    event ReviewsReturned(Review[]);\r\n\r\n    constructor() public {\r\n        addProduct(\r\n            \"Airpods Wireless Bluetooth Headphones\",\r\n            \"Bluetooth technology lets you connect it with compatible devices wirelessly High-quality AAC audio offers immersive listening experience Built-in microphone allows you to take calls while working\",\r\n            \"https://rebeltech.com/wp-content/uploads/2021/10/MME73.jpg\",\r\n            14999,\r\n            20\r\n        );\r\n        addProduct(\r\n            \"iPhone 11 Pro 256GB Memory\",\r\n            \"Bluetooth technology lets you connect it with compatible devices wirelessly High-quality AAC audio offers immersive listening experience Built-in microphone allows you to take calls while working\",\r\n            \"https://images.priceoye.pk/apple-iphone-xi-pakistan-priceoye-oik1o-500x500.webp\",\r\n            14999,\r\n            20\r\n        );\r\n        addProduct(\r\n            \"Cannon EOS 80D DSLR Camera\",\r\n            \"Bluetooth technology lets you connect it with compatible devices wirelessly High-quality AAC audio offers immersive listening experience Built-in microphone allows you to take calls while working\",\r\n            \"data:image\",\r\n            14999,\r\n            20\r\n        );\r\n    }\r\n\r\n    function addUser(\r\n        string memory _email,\r\n        string memory _name,\r\n        string memory _password,\r\n        string memory _billingAdd\r\n    ) public {\r\n        require(\r\n            !userList[msg.sender].isUser,\r\n            \"Store: addUser - User already exists\"\r\n        );\r\n\r\n        userList[msg.sender] = User(\r\n            msg.sender,\r\n            keccak256(abi.encode(_email)),\r\n            _name,\r\n            _billingAdd,\r\n            keccak256(abi.encode(_password, msg.sender)),\r\n            0,\r\n            true\r\n        );\r\n\r\n        emit UserAdded(msg.sender, _email);\r\n    }\r\n\r\n    function getUser() public view returns (User memory) {\r\n        return userList[msg.sender];\r\n    }\r\n\r\n    function authenticateUser(string memory _email, string memory _password)\r\n        public\r\n        view\r\n        returns (bool)\r\n    {\r\n        require(\r\n            userList[msg.sender].isUser,\r\n            \"Store: authenticateUser - User does not exist\"\r\n        );\r\n\r\n        return (userList[msg.sender].email == keccak256(abi.encode(_email)) &&\r\n            userList[msg.sender].password ==\r\n            keccak256(abi.encode(_password, msg.sender)));\r\n    }\r\n\r\n    function addProduct(\r\n        string memory _name,\r\n        string memory _description,\r\n        string memory _imgUrl,\r\n        uint256 _price,\r\n        uint256 _quantity\r\n    ) public {\r\n        productList[productCount] = Product(\r\n            productCount,\r\n            _name,\r\n            _price,\r\n            _quantity,\r\n            _description,\r\n            _imgUrl,\r\n            0\r\n        );\r\n\r\n        productCount++;\r\n        emit ProductAdded(productCount, _name);\r\n    }\r\n\r\n    function getProduct(uint256 prodID) public view returns (Product memory) {\r\n        require(\r\n            prodID >= 0 && prodID <= productCount,\r\n            \"Store: getProduct - Invalid product ID\"\r\n        );\r\n\r\n        // emit ProductReturned(prodID, productList[prodID].name);\r\n        return productList[prodID];\r\n    }\r\n\r\n    function getProductList() public view returns (Product[] memory) {\r\n        Product[] memory _products = new Product[](productCount);\r\n\r\n        for (uint256 i = 0; i < productCount; i++) {\r\n            _products[i] = productList[i];\r\n        }\r\n\r\n        // emit ProductsReturned(_products);\r\n        return _products;\r\n    }\r\n\r\n    function addReview(\r\n        uint256 _productId,\r\n        uint256 _rating,\r\n        string memory _review\r\n    ) public {\r\n        require(\r\n            userList[msg.sender].isUser,\r\n            \"Store: authenticateUser - User does not exist\"\r\n        );\r\n\r\n        require(\r\n            _rating > 0 && _rating < 6,\r\n            \"Store: addReview - Rating should be between 1 and 5\"\r\n        );\r\n\r\n        require(\r\n            _productId >= 0 && _productId <= productCount,\r\n            \"Store: addReview - Product does not exist\"\r\n        );\r\n\r\n        require(\r\n            productList[_productId].id == _productId,\r\n            \"Store: addReview - Product does not exist\"\r\n        );\r\n\r\n        reviewList[_productId][productList[_productId].reviewCount] = Review(\r\n            msg.sender,\r\n            _rating,\r\n            _review\r\n        );\r\n\r\n        productList[_productId].reviewCount++;\r\n\r\n        emit ReviewAdded(\r\n            productList[_productId].reviewCount - 1,\r\n            _review,\r\n            _rating\r\n        );\r\n    }\r\n\r\n    function getReviews(uint256 _productId)\r\n        public\r\n        view\r\n        returns (Review[] memory)\r\n    {\r\n        require(\r\n            _productId >= 0 && _productId <= productCount,\r\n            \"Store: getReviews - Product does not exist\"\r\n        );\r\n\r\n        Review[] memory reviews = new Review[](\r\n            productList[_productId].reviewCount\r\n        );\r\n\r\n        for (uint256 i = 0; i < productList[_productId].reviewCount; i++) {\r\n            reviews[i] = reviewList[_productId][i];\r\n        }\r\n\r\n        // emit ReviewsReturned(reviews);\r\n        return reviews;\r\n    }\r\n\r\n    function addOrder(\r\n        OrderProduct[] memory _products,\r\n        string memory _shippingDet\r\n    ) public {\r\n        require(\r\n            userList[msg.sender].isUser,\r\n            \"Store: authenticateUser - User does not exist\"\r\n        );\r\n\r\n        uint256 total = 0;\r\n\r\n        for (uint256 i = 0; i < _products.length; i++) {\r\n            require(\r\n                _products[i].id >= 0 && _products[i].id <= productCount,\r\n                \"Store: addOrder - Product does not exist\"\r\n            );\r\n\r\n            require(\r\n                productList[_products[i].id].id == _products[i].id,\r\n                \"Store: addOrder - Product does not exist\"\r\n            );\r\n\r\n            require(\r\n                productList[_products[i].id].quantity > 0,\r\n                \"Store: addOrder - Product out of stock\"\r\n            );\r\n        }\r\n\r\n        for (uint256 i = 0; i < _products.length; i++) {\r\n            productList[_products[i].id].quantity -= _products[i].quantity;\r\n            total += productList[_products[i].id].price;\r\n\r\n            orderProductList[msg.sender][userList[msg.sender].orderCount][\r\n                i\r\n            ] = Product(\r\n                _products[i].id,\r\n                productList[_products[i].id].name,\r\n                productList[_products[i].id].price,\r\n                _products[i].quantity,\r\n                productList[_products[i].id].description,\r\n                productList[_products[i].id].imgUrl,\r\n                productList[_products[i].id].reviewCount\r\n            );\r\n        }\r\n\r\n        orderList[msg.sender][userList[msg.sender].orderCount] = Order(\r\n            userList[msg.sender].orderCount,\r\n            total,\r\n            _shippingDet,\r\n            _products.length\r\n        );\r\n\r\n        userList[msg.sender].orderCount++;\r\n\r\n        emit OrderPlaced(\r\n            msg.sender,\r\n            userList[msg.sender].orderCount - 1,\r\n            total\r\n        );\r\n    }\r\n\r\n    function getOrders() public view returns (Order[] memory) {\r\n        Order[] memory _orders = new Order[](userList[msg.sender].orderCount);\r\n\r\n        for (uint256 i = 0; i < userList[msg.sender].orderCount; i++) {\r\n            _orders[i] = orderList[msg.sender][i];\r\n        }\r\n\r\n        // emit OrdersReturned(_orders);\r\n        return _orders;\r\n    }\r\n}\r\n",
  "sourcePath": "E:\\Semester 7\\Blockchain and Cryptography\\Project\\Blockchain-MERN-Ecommerce\\solidity\\contracts\\Store.sol",
  "compiler": {
    "name": "solc",
    "version": "0.5.16+commit.9c3226ce.Emscripten.clang"
  },
  "schemaVersion": "3.4.10",
  "updatedAt": "2022-12-04T10:45:01.010Z",
  "networkType": "ethereum",
  "devdoc": {
    "methods": {}
  },
  "userdoc": {
    "methods": {}
  }
}